:020000040800F2
:1000000000800020FD570008C5570008C7570008AA
:10001000C9570008CB570008CD5700080000000062
:10002000000000000000000000000000314800084F
:10003000CF57000800000000D148000835490008EB
:100040004D5800084D5800084D5800084D580008FC
:100050004D5800084D5800084D5800084D580008EC
:100060004D5800084D5800084D5800084D580008DC
:100070004D5800084D5800084D5800084D580008CC
:100080004D580008000000004D5800084D58000869
:100090004D5800084D5800084D5800084D580008AC
:1000A0004D5800084D5800084D5800084D5800089C
:1000B0004D5800084D5800084D5800084D5800088C
:1000C0004D5800084D5800084D5800084D5800087C
:1000D0004D5800084D5800084D5800084D5800086C
:1000E0004D5800084D5800084D5800084D5800085C
:1000F0004D5800084D5800084D58000800000000F9
:10010000000000004D580008000000004D58000895
:100110004D58000800000000D15700084D58000855
:100120004D5800084D5800084D5800084D5800081B
:100130004D58000800000000000000004D58000865
:100140004D5800084D580008000000000000000055
:10015000000000000000000000000000000000009F
:100160000000000000000000000000004D580008E2
:100170004D580008000000000000000000000000D2
:10018000000000004D5800080000000000000000C2
:10019000000000000000000000000000000000005F
:1001A00000000000000000004D5800084D580008F5
:1001B0004D5800084D5800084D5800080000000038
:1001C000000000004D580008000000000000000082
:0801D0004D5800084D580008CD
:1001E00010B5054C237833B9044B13B10448AFF371
:1001F00000800123237010BDC0000020000000001B
:10020000945D000808B5034B1BB103490348AFF3E5
:10021000008008BD00000000C4000020945D0008BC
:1002200081F0004102E000BF83F0004330B54FEAA7
:1002300041044FEA430594EA050F08BF90EA020F14
:100240001FBF54EA000C55EA020C7FEA645C7FEAA7
:10025000655C00F0E2804FEA5454D4EB5555B8BFCA
:100260006D420CDD2C4480EA020281EA030382EA3B
:10027000000083EA010180EA020281EA0303362DCD
:1002800088BF30BD11F0004F4FEA01314FF4801CA0
:100290004CEA113102D0404261EB410113F0004FB2
:1002A0004FEA03334CEA133302D0524263EB430369
:1002B00094EA050F00F0A780A4F10104D5F1200E07
:1002C0000DDB02FA0EFC22FA05F2801841F1000162
:1002D00003FA0EF2801843FA05F359410EE0A5F136
:1002E00020050EF1200E012A03FA0EFC28BF4CF067
:1002F000020C43FA05F3C01851EBE37101F000451D
:1003000007D54FF0000EDCF1000C7EEB00006EEB29
:100310000101B1F5801F1BD3B1F5001F0CD34908B3
:100320005FEA30004FEA3C0C04F101044FEA44520A
:1003300012F5800F80F09A80BCF1004F08BF5FEA91
:10034000500C50F1000041EB045141EA050130BD71
:100350005FEA4C0C404141EB010111F4801FA4F114
:100360000104E9D191F0000F04BF01460020B1FA69
:1003700081F308BF2033A3F10B03B3F120020CDAA1
:100380000C3208DD02F1140CC2F10C0201FA0CF07F
:1003900021FA02F10CE002F11402D8BFC2F1200CE4
:1003A00001FA02F120FA0CFCDCBF41EA0C0190409A
:1003B000E41AA2BF01EB0451294330BD6FEA0404E3
:1003C0001F3C1CDA0C340EDC04F11404C4F12002CE
:1003D00020FA04F001FA02F340EA030021FA04F3E0
:1003E00045EA030130BDC4F10C04C4F1200220FA37
:1003F00002F001FA04F340EA0300294630BD21FA75
:1004000004F0294630BD94F0000F83F4801306BF3A
:1004100081F480110134013D4EE77FEA645C18BF2E
:100420007FEA655C29D094EA050F08BF90EA020FC5
:1004300005D054EA000C04BF1946104630BD91EABD
:10044000030F1EBF0021002030BD5FEA545C05D1C0
:100450004000494128BF41F0004130BD14F58004FF
:100460003CBF01F5801130BD01F0004545F0FE4173
:1004700041F470014FF0000030BD7FEA645C1ABFA8
:10048000194610467FEA655C1CBF0B46024650EADF
:10049000013406BF52EA033591EA030F41F400210B
:1004A00030BD00BF90F0000F04BF0021704730B591
:1004B0004FF4806404F132044FF000054FF0000166
:1004C00050E700BF90F0000F04BF0021704730B527
:1004D0004FF4806404F1320410F0004548BF4042FC
:1004E0004FF000013EE700BF42004FEAE2014FEA51
:1004F00031014FEA02701FBF12F07F4393F07F4F2C
:1005000081F06051704732F07F4208BF704793F02E
:100510007F4F04BF41F40021704730B54FF4607441
:1005200001F0004521F000411CE700BF50EA010244
:1005300008BF704730B54FF000050AE050EA0102ED
:1005400008BF704730B511F0004502D5404261EB5D
:1005500041014FF4806404F132045FEA915C3FF49E
:10056000D8AE4FF003025FEADC0C18BF03325FEA3B
:10057000DC0C18BF033202EBDC02C2F1200300FAEC
:1005800003FC20FA02F001FA03FE40EA0E0021FA11
:1005900002F11444BDE600BF70B54FF0FF0C4CF4FF
:1005A000E06C1CEA11541DBF1CEA135594EA0C0FB1
:1005B00095EA0C0F00F0DEF82C4481EA030621EAEC
:1005C0004C5123EA4C5350EA013518BF52EA033527
:1005D00041F4801143F4801338D0A0FB02CE4FF0D9
:1005E0000005E1FB02E506F00042E0FB03E54FF009
:1005F0000006E1FB03569CF0000F18BF4EF0010E01
:10060000A4F1FF04B6F5007F64F5407404D25FEAFC
:100610004E0E6D4146EB060642EAC62141EA5551AF
:100620004FEAC52040EA5E504FEACE2EB4F1FD0CF1
:1006300088BFBCF5E06F1ED8BEF1004F08BF5FEA6F
:10064000500E50F1000041EB045170BD06F0004621
:1006500046EA010140EA020081EA0301B4EB5C04CE
:10066000C2BFD4EB0C0541EA045170BD41F48011C6
:100670004FF0000E013C00F3AB8014F1360FDEBFEB
:10068000002001F0004170BDC4F10004203C35DAC7
:100690000C341BDC04F11404C4F1200500FA05F34A
:1006A00020FA04F001FA05F240EA020001F00042EB
:1006B00021F0004110EBD37021FA04F642EB060161
:1006C0005EEA430E08BF20EAD37070BDC4F10C048B
:1006D000C4F1200500FA04F320FA05F001FA04F24F
:1006E00040EA020001F0004110EBD37041F100013B
:1006F0005EEA430E08BF20EAD37070BDC4F1200546
:1007000000FA05F24EEA020E20FA04F301FA05F2AD
:1007100043EA020321FA04F001F0004121FA04F255
:1007200020EA020000EBD3705EEA430E08BF20EA25
:10073000D37070BD94F0000F0FD101F0004640005F
:1007400041EB010111F4801F08BF013CF7D041EAE1
:10075000060195F0000F18BF704703F000465200E5
:1007600043EB030313F4801F08BF013DF7D043EAB6
:100770000603704794EA0C0F0CEA135518BF95EA6C
:100780000C0F0CD050EA410618BF52EA4306D1D1F3
:1007900081EA030101F000414FF0000070BD50EA12
:1007A000410606BF1046194652EA430619D094EA9C
:1007B0000C0F02D150EA013613D195EA0C0F05D186
:1007C00052EA03361CBF104619460AD181EA0301DA
:1007D00001F0004141F0FE4141F470014FF0000092
:1007E00070BD41F0FE4141F4780170BD70B54FF02D
:1007F000FF0C4CF4E06C1CEA11541DBF1CEA1355AD
:1008000094EA0C0F95EA0C0F00F0A7F8A4EB05048E
:1008100081EA030E52EA03354FEA013100F0888085
:100820004FEA03334FF0805545EA131343EA12634E
:100830004FEA022245EA111545EA10654FEA002603
:100840000EF000419D4208BF964244F1FD0404F5BC
:10085000407402D25B084FEA3202B61A65EB030518
:100860005B084FEA32024FF480104FF4002CB6EBD5
:10087000020E75EB030E22BFB61A754640EA0C0055
:100880005B084FEA3202B6EB020E75EB030E22BF95
:10089000B61A754640EA5C005B084FEA3202B6EBD6
:1008A000020E75EB030E22BFB61A754640EA9C0095
:1008B0005B084FEA3202B6EB020E75EB030E22BF65
:1008C000B61A754640EADC0055EA060E18D04FEA23
:1008D000051545EA16754FEA06164FEAC30343EAC3
:1008E00052734FEAC2025FEA1C1CC0D111F4801F90
:1008F0000BD141EA00014FF000004FF0004CB6E789
:1009000011F4801F04BF01430020B4F1FD0C88BF27
:10091000BCF5E06F3FF6AFAEB5EB030C04BFB6EB32
:10092000020C5FEA500C50F1000041EB045170BD25
:100930000EF0004E4EEA113114EB5C04C2BFD4EB52
:100940000C0541EA045170BD41F480114FF0000ED6
:10095000013C90E645EA060E8DE60CEA135594EA52
:100960000C0F08BF95EA0C0F3FF43BAF94EA0C0F55
:100970000AD150EA01347FF434AF95EA0C0F7FF4CA
:1009800025AF104619462CE795EA0C0F06D152EA1E
:1009900003353FF4FDAE1046194622E750EA410602
:1009A00018BF52EA43067FF4C5AE50EA41047FF413
:1009B0000DAF52EA43057FF4EBAE12E74FF0FF3C78
:1009C00006E000BF4FF0010C02E000BF4FF0010C49
:1009D0004DF804CD4FEA410C7FEA6C5C4FEA430CC2
:1009E00018BF7FEA6C5C1BD001B050EA410C0CBF11
:1009F00052EA430C91EA030F02BF90EA020F002073
:100A0000704710F1000F91EA030F58BF994208BFD9
:100A100090422CBFD8176FEAE37040F00100704796
:100A20004FEA410C7FEA6C5C02D150EA013C07D1ED
:100A30004FEA430C7FEA6C5CD6D152EA033CD3D038
:100A40005DF8040B704700BF8446104662468C4632
:100A50001946634600E000BF01B5FFF7B7FF002865
:100A600048BF10F1000F01BD4DF808EDFFF7F4FF8E
:100A70000CBF012000205DF808FB00BF4DF808ED19
:100A8000FFF7EAFF34BF012000205DF808FB00BF3C
:100A90004DF808EDFFF7E0FF94BF012000205DF85E
:100AA00008FB00BF4DF808EDFFF7CEFF94BF012013
:100AB00000205DF808FB00BF4DF808EDFFF7C4FF0C
:100AC00034BF012000205DF808FB00BF4FEA410C55
:100AD0007FEA6C5C02D150EA013C0AD14FEA430C38
:100AE0007FEA6C5C02D152EA033C02D14FF0000075
:100AF00070474FF0010070474A0011D212F5001202
:100B000011D20DD56FF47873B3EB62520ED44FEA65
:100B1000C12343F0004343EA505323FA02F07047E5
:100B20004FF00000704750EA013002D14FF0FF3023
:100B300070474FF00000704710B5032000F070FDC3
:100B4000002004F003FE10B10124204610BD04462D
:100B500004F066FDF9E70000034A136803490968D9
:100B60000B441360704700BFEC1900200000002008
:100B7000014B1868704700BFEC19002030B583B0F6
:100B800000230193002800F017810446C36D03B3CE
:100B900023689A6812F0005F05D09A6822F020421C
:100BA00022F03F029A602268936813F0805F1DD1A3
:100BB000936823F0104323F03F0343F08053936086
:100BC0007E4B1B689B097E4AA2FB03239B09019372
:100BD00009E004F04DFD0023236684F85830D7E780
:100BE000019B013B0193019B002BF9D123689A687B
:100BF00012F0805F40F09E80E26D42F01002E265EC
:100C0000226E42F00102226601209A6812F0040F5F
:100C100000F092800121E26D12F0100F40F0C580CB
:100C2000002940F0C280E26D22F4817242F002029B
:100C3000E2659B6813F0010F15D14FF0A0439B684C
:100C400013F0010F7AD001225E4B9B6813F0010F65
:100C500076D00123134306D163685B498A6822F486
:100C60007C1213438B60627FE36B43EA4233E2689A
:100C70001343A268134394F8242043EA0243012A51
:100C800060D0E26A22B102F47872216B0A43134306
:100C90002168CD684D4A2A401343CB60226813690E
:100CA00023F04063616B0B43136123689A6812F071
:100CB000040F4CD001219A6812F0080F49D001228C
:100CC00049BB42BB217F94F83820520042EA81316F
:100CD000DA6822F4804222F002020A43DA602369D1
:100CE000002B38D02268136943F4803313612268E3
:100CF000D2F8C03023F47F5323F03F0321690B4324
:100D0000C2F8C03094F84030012B33D02268136908
:100D100023F0010313616369012B3DD02268136B3B
:100D200023F00F031363E36D23F0030343F0010388
:100D3000E3653FE0002068E700216CE7002283E7DD
:100D4000002387E7A26A013A43EA424399E7002178
:100D5000B1E70022B4E72268136923F480331361FA
:100D60002268D2F8C03023F47F5323F03F03C2F847
:100D7000C030C7E721680B6923F4FF6323F0040345
:100D8000626CA56C2A43E56C2A43256D2A43134304
:100D900043F001030B61BEE721680B6B23F00F03E7
:100DA000226A013A13430B63BDE7E36D43F010037E
:100DB000E365012003B030BD0120FBE754000020B3
:100DC000632D3E0500010050000300500740F0FF76
:100DD0002DE9F0413F4B9F6807F01F078369082BFF
:100DE0003BD057B1052F08D0092F06D0394B9B684F
:100DF00013F4604F2BD1042605E00368DB6813F081
:100E0000010F1DD104260D460446FFF7B1FE8046B2
:100E100023681A68324222D1B5F1FF3FF8D0FFF7BC
:100E2000A7FEA0EB0800A84201D8002DF0D1E36D89
:100E300043F00403E365002384F85830032004E002
:100E4000C36D43F02003C3650120BDE8F081C36D8D
:100E500043F02003C3650120F7E70826D3E7E26DDE
:100E600042F40072E265DA6812F4406F11D1627FD9
:100E70007AB91A6812F0080F0BD0E26D22F4807272
:100E8000E265E26D12F4805F03D1E26D42F001028F
:100E9000E265114A934209D01A46934209D047B1FC
:100EA000052F06D0092F04D0D26803E04FF0A042EE
:100EB000F3E7DA68082E06D012F4804F07D10C222F
:100EC0001A600020C1E708221A600020BDE7002058
:100ED000BBE700BF00030050000100500368186C1E
:100EE00070470000F0B482B00022019290F85820C0
:100EF000012A00F036820346012280F85820066855
:100F0000B06810F0040F0AD0DA6D42F02002DA6502
:100F10000120002283F8582002B0F0BC70474D68D1
:100F20000C6830362A0A920002F00C02B05805F024
:100F30001F051F27AF4020EA0700C4F38464AC40BC
:100F40002043B0501A68906810F0040F00F08F80B2
:100F50000120946814F0080F00F08B800125002810
:100F60004ED1002D4CD18C68B4F1004F00F083803D
:100F70000F681432780E800000F004001658C7F392
:100F800004574FF0070C0CFA07FC26EA0C06BC408D
:100F9000344314501868426922F0004242614A69A1
:100FA0001C68E068C0F3C100400002FA00F00E695E
:100FB000042E78D0603454F82670BD4A3A400F6849
:100FC00007F0F8473843024342F0004244F8262035
:100FD0001A680E698869603252F8264024F08074DD
:100FE000204342F8260018680C690A7F012A57D06E
:100FF000603050F8242022F000722A4340F8242068
:101000001868826812F0010F16D10A68CD68D0F80E
:10101000B040C2F3120624EA060405F01806A54DF6
:10102000F5402A40C2F312022243C0F8B020C8683B
:10103000A14A904200F093800A68A0490A4200F059
:1010400088819F49896801F0E0709E4CA24200F0BF
:1010500024819D4CA24200F020819C4CA24200F0D1
:1010600055819B4CA24200F06381002051E7002093
:101070006FE7002573E70C681432600E800000F003
:1010800004001658C4F30454072707FA04F426EAA8
:10109000040414501868426942F0004242617EE73D
:1010A0004FF00075A4E7226E206EC0F384600A68DA
:1010B000C2F3120585BBC2F38462904231D01C6832
:1010C000626E606EC0F384600A68C2F312056DBB85
:1010D000C2F3846290422ED01C68A26EA06EC0F350
:1010E00084600A68C2F3120555BBC2F38462904261
:1010F0002BD01C68E26EE06EC0F384600A68C2F315
:1011000012053DBBC2F3846290427FF479AFE26E78
:1011100022F00042E26673E792FAA2F2B2FA82F299
:10112000CBE7226E22F000422266C8E792FAA2F2D2
:10113000B2FA82F2CEE7626E22F000426266CBE73C
:1011400092FAA2F2B2FA82F2D1E7A26E22F0004243
:10115000A266CEE792FAA2F2B2FA82F2D4E71D6852
:101160000A68C2F3120696BB900E013000F01F0011
:1011700009288CBF00200120002852D09EBB940E6D
:101180000134A40604F0F844B6BB900E013000F020
:101190001F070120B8400443C6BB920E013202F083
:1011A0001F0202EB4202120522438C681435500ED6
:1011B000800000F004002E58C2F304520727974025
:1011C00026EA070604FA02F232432A5034E792FA7A
:1011D000A2F0B0FA80F0013000F01F0009288CBFA7
:1011E00000200120C8E792FAA2F4B4FA84F4013492
:1011F000A40604F0F844C7E792FAA2F0B0FA80F02F
:10120000013000F01F070120B840C4E792FAA2F2B3
:10121000B2FA82F2013202F01F0202EB4202120520
:10122000C2E7CEB9940E0134A40604F0F844E6B93E
:10123000900E013000F01F070120B8400443F6B9BA
:10124000900E013000F01F0000EB40021E3A120524
:1012500042F000722243A8E792FAA2F4B4FA84F4AE
:101260000134A40604F0F844E1E792FAA2F0B0FADF
:1012700080F0013000F01F070120B840DEE792FA4D
:10128000A2F0B0FA80F0013000F01F0000EB400245
:101290001E3A120542F00072DCE711F4000F7FF4F1
:1012A000DCAE1A68B2F1A04F14D0002031E600BFC6
:1012B00000F0FF03FFFF070000007F4000000880F0
:1012C00000030050000021C31000C090000052C76E
:1012D000000084CB40F4000023498A6822F0E072C9
:1012E00010438860214A126892092149A1FB021229
:1012F000920902EB42029100019102E0019A013A47
:101300000192019A002AF9D1002002E611F0807FB3
:101310007FF4A7AE1968174A91421CD040F0807044
:1013200011498A6822F0E072104388600020F0E5DD
:1013300011F4800F11D119680E4A91420FD040F478
:1013400080020948816821F0E0710A438260002030
:10135000DFE50020DDE50020DBE50020D9E5002009
:10136000D7E50220D8E500BF00030050540000205C
:10137000632D3E050001005038B503689A6812F0ED
:10138000010F3DD199681F4A114209D0C36D43F046
:101390001003C365036E43F001030366012030E0D0
:1013A00004469A6822F0004222F03F0242F0010215
:1013B0009A60FFF7DDFB054604E0FFF7D9FB401B11
:1013C000022811D823681A6812F0010F16D19A6802
:1013D00012F0010FF1D19A6822F0004222F03F0290
:1013E00042F001029A60E8E7E36D43F01003E36521
:1013F000236E43F001032366012002E0002000E099
:10140000002038BD3F00008038B53B4B9D68036825
:101410009B6813F0040F6AD105F01F0590F858304F
:10142000012B67D00446012380F85830FFF7A4FF52
:101430000346002857D1E26D22F4706222F00102C7
:1014400042F48072E26522682C498A422FD011460C
:101450008A4200D01DB9E16D21F48011E165E16D92
:1014600011F4805F26D0216E21F0060121661C2137
:101470001160002284F858202168204A91421CD033
:101480000A4691421CD0DDB1052D19D0092D17D087
:10149000E16D41F48011E165D26812F0007F27D040
:1014A000E26D22F4405242F48052E26520E04FF0B7
:1014B000A041CDE700212166D9E74FF0A042E0E747
:1014C000CA6812F0007F05D0E26D22F4405242F467
:1014D0008052E2658A6822F0004222F03F0242F028
:1014E00004028A6004E0002284F8582000E002230D
:1014F000184638BD0223FBE70003005000010050EE
:1015000090F85820012A00F0848030B49CB0034643
:10151000012280F858200268B2F1A04F39D0002093
:1015200001900198002837D0806810F0040F3CD05B
:101530000120926812F0040F5CD100285AD10A6889
:10154000002A38D0344CA26822F46042486893F8EC
:10155000385040EA45300243A2604FF0A042926802
:1015600012F0010F23D001222C48806810F0010FE7
:101570001FD00120024348D1274CA26822F4716297
:1015800022F00F020868896801430A43A260002024
:1015900035E022480190C4E7DA6D42F02002DA65B6
:1015A000002283F8582001202CE00020C1E700220F
:1015B000DAE70020DEE71848816821F460418160A5
:1015C0004FF0A041896811F0010F11D0012113489B
:1015D000806810F0010F00D001220A4317D10E4994
:1015E0008A6822F4716222F00F028A60002006E00D
:1015F0001146ECE7DA6D42F02002DA6501200022A4
:1016000083F858201CB030BC70470020F7E700205A
:10161000F5E70220704700BF0003005000010050B2
:10162000074AD36823F4E0631B041B0C000200F498
:10163000E060184340F0BF6040F40030D060704775
:1016400000ED00E030B4174BDB68C3F30223C3F1B5
:101650000704042C28BF04241D1D062D18D9033BA4
:101660004FF0FF3505FA04F421EA0401994005FA28
:1016700003F322EA0303194300280BDB0901C9B273
:1016800000F1604000F5614080F8001330BC704705
:101690000023E5E700F00F000901C9B2024B19541D
:1016A000F4E700BF00ED00E014ED00E0002807DBE8
:1016B00000F01F02400901239340024A42F8203003
:1016C000704700BF00E100E0F0B583B0002336E0D2
:1016D000052400E00024B4403C4302355E4E46F849
:1016E00025405E4C2568D44304EA05064F6817F48C
:1016F000803F01D042EA0506584D2E606D6804EA2D
:1017000005064F6817F4003F01D042EA0506534D25
:101710006E60AD6804EA05064F6817F4801F01D0BB
:1017200042EA05064D4DAE60ED682C404E6816F459
:10173000001F01D042EA0504484AD46001330A6818
:1017400032FA03F400F0868001249C402240F5D058
:101750004D686E1E012E03D9112D01D0122D12D10C
:1017600086685F000325BD4026EA0506CD68BD40BA
:1017700035438560466826EA04064D68C5F30014C3
:101780009C4034434460C5685F000324BC40E4438C
:1017900025408E68BE402E43C6604D68022D01D0A4
:1017A000122D13D1DE08083650F826E003F00705A5
:1017B0004FEA850C0F2505FA0CF52EEA050E0D698A
:1017C00005FA0CF545EA0E0540F8265005682C4050
:1017D0004D6805F00305BD402C4304604C6814F0CF
:1017E000805FABD01E4C256E45F001052566246E4A
:1017F00004F001040194019C9D08AE1C164C54F8A1
:10180000267003F00304A6000F24B44027EA04075F
:10181000B0F1904F3FF45EAF124CA04212D004F5ED
:101820008064A04210D004F58064A0420ED004F57C
:101830008064A0420CD004F58064A0423FF448AF1D
:10184000062448E7012446E7022444E7032442E74C
:10185000042440E703B0F0BD000001400004014053
:1018600000100240000400480369194201D1002021
:101870007047012070470AB98162704781617047E3
:10188000002838D13E4B1B6803F4C063B3F5806F6A
:1018900008D03B4AD2F8803023F48073C2F88030FD
:1018A00000207047364AD2F8803023F48073C2F8A3
:1018B0008030136823F4C06343F400731360314B2A
:1018C0001A68322303FB02F32F4AA2FB03239B0C6B
:1018D000013300E0013B2A4A526912F4806F01D0C3
:1018E000002BF7D1264B5B6913F4806F01D10020E8
:1018F000704703207047B0F5007F08D0204A136876
:1019000023F4C06343F480631360002070471C4BD2
:101910001B6803F4C063B3F5806F08D0184AD2F88F
:10192000803043F48073C2F8803000207047144A3E
:10193000D2F8803043F48073C2F88030136823F407
:10194000C06343F4007313600E4B1A68322303FB29
:1019500002F30D4AA2FB03239B0C013300E0013B81
:10196000074A526912F4806F01D0002BF7D1044B63
:101970005B6913F4806F01D100207047032070472A
:10198000007000405400002083DE1B43124AD368DD
:1019900003F00303D068C0F303100130032B11D010
:1019A0000E4BB3FBF0F30C4AD068C0F3062000FBEB
:1019B00003F0094BDB68C3F3416301335B00B0FB09
:1019C000F3F07047064BB3FBF0F3D068C0F306208A
:1019D00000FB03F0EDE700BF001002400024F4001C
:1019E00000127A00002800F05E8270B582B00446D2
:1019F000036813F0010F37D0B44A936803F00C0367
:101A0000D26802F003020C2B23D0082B23D063688A
:101A1000B3F5803F4ED0B3F5A02F51D0AB4B1A6831
:101A200022F480321A601A6822F480221A606368F5
:101A3000002B52D0FFF79CF80546A44B1B6813F40B
:101A4000003F11D1FFF794F8401B6428F5D903201B
:101A500032E2032AD9D19D4B1B6813F4003F03D017
:101A60006368002B00F02182236813F0020F5DD021
:101A7000964A936803F00C03D26802F003020C2B21
:101A80003AD0042B3AD0E368002B75D08F4A136804
:101A900043F480731360FFF76BF805468B4B1B68AC
:101AA00013F4806F5FD1FFF763F8401B0228F5D96C
:101AB000032001E2854A136843F480331360B6E7DC
:101AC00003F18043A3F53C331A6842F480221A6084
:101AD0001A6842F480321A60A9E7FFF749F8054610
:101AE0007A4B1B6813F4003FBED0FFF741F8401B50
:101AF0006428F5D90320DFE1022AC2D1734B1B68A9
:101B000013F4806F03D0E368002B00F0D0816F4A9C
:101B1000536823F0FE43216943EA016353606C4B31
:101B2000186803F013FE002840F0C381236813F007
:101B3000080F4CD063699BB3644AD2F8943043F0E9
:101B40000103C2F89430FFF713F805465F4BD3F852
:101B5000943013F0020F3AD1FFF70AF8401B022825
:101B6000F4D90320A8E1594A536823F0FE432169C0
:101B700043EA01635360D9E7544A136823F480733E
:101B80001360FEF7F5FF0546504B1B6813F4806F9A
:101B9000CCD0FEF7EDFF401B0228F5D903208BE1E6
:101BA0004A4AD2F8943023F00103C2F89430FEF789
:101BB000DFFF0546454BD3F8943013F0020F06D0F3
:101BC000FEF7D6FF401B0228F4D9032074E12368F6
:101BD00013F0040F00F081803C4B9B6D13F0805F8D
:101BE00036D13A4B9A6D42F080529A659B6D03F064
:101BF00080530193019B0125364B1B6813F4807FB2
:101C000028D0A368012B39D0052B3FD02F4BD3F818
:101C1000902022F00102C3F89020D3F8902022F007
:101C20000402C3F89020A368002B3DD0FEF7A0FF6C
:101C30000646264BD3F8903013F0020F4CD1FEF736
:101C400097FF801B41F288339842F2D9032033E199
:101C50000025D1E71F4A136843F480731360FEF731
:101C600087FF06461B4B1B6813F4807FC9D1FEF724
:101C70007FFF801B0228F5D903201DE1134AD2F80B
:101C8000903043F00103C2F89030CCE70F4BD3F80B
:101C9000902042F00402C3F89020D3F8902042F044
:101CA0000102C3F89020BEE7FEF762FF0646074B2D
:101CB000D3F8903013F0020F0ED0FEF759FF801BBF
:101CC00041F288339842F2D90320F5E00010024037
:101CD0000400002000700040E5B9236813F0200FD5
:101CE00035D0A369E3B1774AD2F8983043F00103C5
:101CF000C2F89830FEF73CFF0546724BD3F8983097
:101D000013F0020F23D1FEF733FF401B0228F4D952
:101D10000320D1E06B4A936D23F080539365DCE799
:101D2000684AD2F8983023F00103C2F89830FEF7E1
:101D30001FFF0546634BD3F8983013F0020F06D00F
:101D4000FEF716FF401B0228F4D90320B4E0E36934
:101D5000002B00F0B0805B4A926802F00C020C2A63
:101D600069D0022B1DD0574B1A6822F080721A607E
:101D7000DA6822F00302DA60DA6822F0887222F46C
:101D80008032DA60FEF7F4FE04464E4B1B6813F017
:101D9000007F4ED0FEF7ECFE001B0228F5D9032091
:101DA0008AE0484A136823F080731360FEF7E0FE70
:101DB0000546444B1B6813F0007F06D0FEF7D8FEA3
:101DC000401B0228F5D9032076E03E4AD3683E49FD
:101DD0001940236A606A013843EA0013A06A43EAA3
:101DE0000023206B4008013843EA4053606B4008F1
:101DF000013843EA4063E06A43EAC0630B43D360BF
:101E0000136843F080731360D36843F08073D3602A
:101E1000FEF7AEFE04462B4B1B6813F0007F06D185
:101E2000FEF7A6FE001B0228F5D9032044E000209F
:101E300042E0002040E0012B40D0224BDB6803F061
:101E40000301226A914201D0012035E003F0F00243
:101E5000616A0139B2EB011F01D001202CE003F4CB
:101E6000FE42A16AB2EB012F01D0012024E003F071
:101E70007842E16AB2EBC16F01D001201CE003F4AB
:101E8000C001226B5208013AB1EB425F01D0012040
:101E900012E003F0C063626B5208013AB3EB426F89
:101EA0000ED0012008E001207047012004E001204D
:101EB00002E0012000E0002002B070BD0120FBE73D
:101EC0000020F9E7001002400C809F011E4B9B6828
:101ED00003F00C03042B33D01B4B9B6803F00C0363
:101EE000082B2FD0184B9B6803F00C030C2B01D050
:101EF00000207047144BDA6802F00302DB68C3F37A
:101F000003130133032A11D11048B0FBF3F30E4A37
:101F1000D068C0F3062000FB03F00B4BDB68C3F373
:101F2000416301335B00B0FBF3F070470848B0FB3E
:101F3000F3F3054AD068C0F3062000FB03F0ECE79A
:101F400003487047014870470010024000127A00B1
:101F50000024F400002800F0EA80F8B50446764B2F
:101F60001B6803F00F038B420CD2734A136823F0F3
:101F70000F030B431360136803F00F038B4201D070
:101F80000120B3E00D46236813F0010F61D06368B0
:101F9000032B15D0022B33D0684B1B6813F4806FD2
:101FA00000F0C780FFF792FF654B984235D9634A2E
:101FB000936823F0F00343F08003936080272DE0C3
:101FC0005E4B1B6813F0007F01D101208EE0FFF70C
:101FD000DDFC5B4B98421AD9584B9B6813F0F00F0D
:101FE00005D0236813F0020F13D0A3689BB9534A9E
:101FF000936823F0F00343F08003936080270DE0A3
:102000004E4B1B6813F4003FCCD101206EE000273B
:1020100004E0002702E0002700E00027474A936819
:1020200023F0030361680B439360FEF7A1FD0646AE
:10203000424B9B6803F00C036268B3EB820F09D03C
:10204000FEF796FD801B41F288339842F0D90320B9
:102050004CE00027236813F0020F48D013F0040F60
:1020600004D0364A936843F4E0639360236813F026
:10207000080F06D0314A936823F47C5343F4E0639D
:1020800093602E4A936823F0F003A1680B4393609A
:10209000294B1B6803F00F03AB4230D8236813F0C1
:1020A000040F06D0254A936823F4E063E1680B43EC
:1020B0009360236813F0080F07D0204A936823F435
:1020C0006053216943EAC1039360FFF7FFFE1B4B96
:1020D0009B68C3F303131B4AD35C03F01F03D84070
:1020E000194B1860194B186803F030FBF8BD002F2E
:1020F000CED0124A936823F0F0039360C8E70E4AEB
:10210000136823F00F032B431360FEF731FD0646DF
:10211000094B1B6803F00F03AB42BFD0FEF728FD4D
:10212000801B41F288339842F2D90320DEE7012078
:1021300070470120DAE700BF002002400010024093
:1021400000B4C4042C5E00085400002004000020E9
:10215000014B1868704700BF5400002008B5FFF716
:10216000F7FF054B9B68C3F30223044AD35C03F0DB
:102170001F03D84008BD00BF001002403C5E0008AD
:102180000F2303600B4B9A6802F0030242609A68C7
:1021900002F0F00282609A6802F4E062C2609B681A
:1021A000DB0803F4E0630361034B1B6803F00F03D8
:1021B0000B6070470010024000200240F0B583B071
:1021C0000446036813F4002F69D0B34B9B6D13F0E2
:1021D000805F1ED1B04B9A6D42F080529A659B6D24
:1021E00003F080530193019B0126AC4A136843F42A
:1021F00080731360FEF7BCFC0546A84B1B6813F404
:10220000807F08D1FEF7B4FC401B0228F5D90325D6
:1022100002E00026E9E7002545BB9F4BD3F890304C
:1022200013F4407315D0226C9A4212D09A4AD2F815
:10223000903023F44073D2F8901041F48031C2F80A
:102240009010D2F8901021F48031C2F89010C2F8AA
:10225000903013F0010F10D145B98F4AD2F8903069
:1022600023F44073216C0B43C2F89030C6B18A4A04
:10227000936D23F08053936512E0FEF779FC0746D7
:10228000854BD3F8903013F0020FE5D1FEF770FCC8
:10229000C01B41F288339842F2D90325DCE70025C0
:1022A000236813F0010F08D07B4AD2F8883023F05E
:1022B000030361680B43C2F88830236813F0020FF0
:1022C00008D0754AD2F8883023F00C03A1680B437C
:1022D000C2F88830236813F0040F08D06E4AD2F891
:1022E000883023F03003E1680B43C2F8883023685C
:1022F00013F0080F08D0684AD2F8883023F0C003E2
:1023000021690B43C2F88830236813F0200F08D0EE
:10231000614AD2F8883023F4406361690B43C2F804
:102320008830236813F0400F08D05B4AD2F8883019
:1023300023F44053A1690B43C2F88830236813F09B
:10234000800F08D0544AD2F8883023F44043E16922
:102350000B43C2F88830236813F4807F08D04E4ABC
:10236000D2F8883023F44033216A0B43C2F8883016
:10237000236813F4007F08D0474AD2F8883023F44A
:102380004023616A0B43C2F88830236813F4806FDE
:102390000CD0414AD2F8883023F44013A16A0B4391
:1023A000C2F88830A36AB3F5801F57D0236813F4AE
:1023B000006F0CD0384AD2F8883023F44003E16A29
:1023C0000B43C2F88830E36AB3F5800F4BD0236823
:1023D00013F4805F0CD0304AD2F8883023F0407379
:1023E000216B0B43C2F88830236BB3F1807F3FD061
:1023F000236813F4005F0CD0274AD2F8883023F00A
:102400004063616B0B43C2F88830636BB3F1006FBC
:1024100033D0236813F4804F0CD01F4AD2F8883091
:1024200023F04063A16B0B43C2F88830A36BB3F178
:10243000006F27D0236813F4004F0CD0164AD2F84F
:10244000883023F04053E16B0B43C2F88830E36BD4
:10245000B3F1805F1BD0284603B0F0BDD36843F4CE
:102460008013D360A2E7D36843F48013D360AEE750
:10247000D36843F48013D360BAE7D36843F480137E
:10248000D360C6E7D36843F48013D360D2E7D36840
:1024900043F48033D360DEE7001002400070004058
:1024A00030B4036A23F001030362036A446882695B
:1024B00022F4803222F073020D682A4323F00203D3
:1024C0008D682B431C4DA8420FD005F50065A8422E
:1024D0000BD005F54065A84207D005F58065A842F8
:1024E00003D005F58065A84205D123F00803CD6827
:1024F0002B4323F00403104DA8420FD005F50065CF
:10250000A8420BD005F54065A84207D005F58065C7
:10251000A84203D005F58065A84205D124F4407592
:102520004C692C438D692C43446082614A68426344
:10253000036230BC704700BF002C014030B4036A16
:1025400023F480730362036A4468C26922F4803210
:1025500022F073020D682A4323F400738D6843EA66
:102560000523184DA84203D005F50065A84206D101
:1025700023F40063CD6843EA052323F48063114DFF
:10258000A8420FD005F50065A8420BD005F54065BF
:10259000A84207D005F58065A84203D005F58065FF
:1025A000A84207D124F440544D6944EA05148D69CA
:1025B00044EA05144460C2614A68C263036230BCE5
:1025C000704700BF002C014030B4036A23F48053ED
:1025D0000362036A4468C26922F0807222F4E64210
:1025E0000D6842EA052223F400538D6843EA05335F
:1025F000174DA84203D005F50065A84206D123F483
:102600000043CD6843EA053323F48043104DA842CC
:102610000FD005F50065A8420BD005F54065A8422E
:1026200007D005F58065A84203D005F58065A8426E
:1026300007D124F440444D6944EA85148D6944EA85
:1026400085144460C2614A680264036230BC70470A
:10265000002C014030B4036A23F480330362036A20
:102660004468026D22F4803222F070020D682A4321
:1026700023F400338D6843EA05430F4DA8420FD081
:1026800005F50065A8420BD005F54065A84207D0C6
:1026900005F58065A84203D005F58065A84204D100
:1026A00024F480344D6944EA0524446002654A6894
:1026B0008264036230BC7047002C014030B4036A6E
:1026C00023F480130362036A4468026D22F080726F
:1026D00022F4E0420D6842EA052223F400138D68DB
:1026E00043EA05530F4DA8420FD005F50065A842F7
:1026F0000BD005F54065A84207D005F58065A842D6
:1027000003D005F58065A84204D124F480244D69E6
:1027100044EA8524446002654A68C264036230BCAE
:10272000704700BF002C014010B4036A046A24F013
:1027300001040462846924F0F00444EA021223F0E4
:102740000A030B43826103625DF8044B704710B4C7
:10275000036A23F0100303628469036A24F470445B
:1027600044EA023223F0A00343EA011382610362C8
:102770005DF8044B7047836823F4401323F0700323
:10278000194341F0070181607047000090F83D3027
:10279000DBB2012B01D001207047022380F83D30CD
:1027A0000268D36843F00103D36002689168084B64
:1027B0000B40062B08D0B3F5803F07D0136843F0D9
:1027C000010313600020704700207047002070470D
:1027D000070001007047704770477047704710B599
:1027E000044603681A6912F0020F12D0DA6812F078
:1027F000020F0ED06FF002021A6101230377036803
:102800009B6913F0030F00F09F80FFF7E5FF0023A3
:10281000237723681A6912F0040F13D0DA6812F0D4
:10282000040F0FD06FF004021A610223237723688C
:102830009B6913F4407F00F08D802046FFF7CCFFAA
:102840000023237723681A6912F0080F12D0DA6880
:1028500012F0080F0ED06FF008021A6104232377DC
:102860002368DB6913F0030F7BD02046FFF7B4FF2A
:102870000023237723681A6912F0100F12D0DA6848
:1028800012F0100F0ED06FF010021A610823237798
:102890002368DB6913F4407F6AD02046FFF79CFF72
:1028A0000023237723681A6912F0010F03D0DA6836
:1028B00012F0010F63D123681A6912F0800F03D060
:1028C000DA6812F0800F61D123681A6912F4807FF0
:1028D00003D0DA6812F0800F5FD123681A6912F012
:1028E000400F03D0DA6812F0400F5DD123681A69F7
:1028F00012F0200F03D0DA6812F0200F5BD12368AA
:102900001A6912F4801F03D0DA6812F4801F59D1BB
:1029100023681A6912F4001F03D0DA6812F4001F4A
:1029200057D123681A6912F4800F03D0DA6812F4C1
:10293000800F55D123681A6912F4000F03D0DA68AA
:1029400012F4000F53D110BDFFF745FF2046FFF7EB
:1029500044FF5CE72046FFF73EFF2046FFF73DFFC0
:102960006EE72046FFF737FF2046FFF736FF7FE789
:102970002046FFF730FF2046FFF72FFF90E76FF06C
:1029800001021A61204602F03FFE94E76FF08002D8
:102990001A61204600F0A5FB96E76FF480721A6179
:1029A000204600F09FFB98E76FF040021A61204636
:1029B000FFF714FF9AE76FF020021A61204600F03B
:1029C0008FFB9CE76FF480121A61204600F08BFBAE
:1029D0009EE76FF400121A61204600F085FBA0E725
:1029E0006FF480021A61204600F07FFBA2E76FF4CB
:1029F00000021A61204600F079FBA4E703682C4A24
:102A000090420ED0B0F1804F0BD0A2F5943290429C
:102A100007D002F58062904203D002F596329042D0
:102A200003D123F070034A681343214A90421AD01D
:102A3000B0F1804F17D0A2F59432904213D002F536
:102A4000806290420FD002F5963290420BD002F590
:102A50004062904207D002F58062904203D002F5B6
:102A60008062904203D123F44073CA68134323F079
:102A700080034A69134303608B68C3620B688362F7
:102A80000B4B98420FD003F5006398420BD003F52F
:102A90004063984207D003F58063984203D003F562
:102AA0008063984201D10B6903630123436170473E
:102AB000002C014058B310B5044690F83D300BB3DC
:102AC000022384F83D30211D2068FFF797FF012382
:102AD00084F8483084F83E3084F83F3084F8403041
:102AE00084F8413084F8423084F8433084F844302C
:102AF00084F8453084F8463084F8473084F83D3017
:102B0000002010BD80F83C3002F0E2FDD8E7012043
:102B1000704758B310B5044690F83D300BB302230C
:102B200084F83D30211D2068FFF768FF012384F8F9
:102B3000483084F83E3084F83F3084F8403084F8E0
:102B4000413084F8423084F8433084F8443084F8CB
:102B5000453084F8463084F8473084F83D30002012
:102B600010BD80F83C30FFF735FED8E701207047F4
:102B700030B4036A23F010030362036A4468826975
:102B800022F0807222F4E6420D6842EA052223F028
:102B900020038D6843EA0513174DA84203D005F5BD
:102BA0000065A84206D123F08003CD6843EA0513EF
:102BB00023F04003104DA8420FD005F50065A84250
:102BC0000BD005F54065A84207D005F58065A84201
:102BD00003D005F58065A84207D124F440644D690F
:102BE00044EA85048D6944EA8504446082614A6848
:102BF0008263036230BC7047002C014038B590F806
:102C00003C30012B00F08C800D460446012380F8F7
:102C10003C30142A1ED8DFE802F00B1D1D1D211DBB
:102C20001D1D351D1D1D481D1D1D5C1D1D1D6F001D
:102C30000068FFF735FC2268936943F0080393614D
:102C40002268936923F004039361226893692969D8
:102C50000B439361002084F83C0038BD0068FFF707
:102C600087FF2268936943F4006393612268936944
:102C700023F48063936122689369296943EA0123FD
:102C80009361E7E70068FFF759FC2268D36943F0D6
:102C90000803D3612268D36923F00403D361226857
:102CA000D36929690B43D361D4E70068FFF78CFC33
:102CB0002268D36943F40063D3612268D36923F4A3
:102CC0008063D3612268D369296943EA0123D36110
:102CD000C0E70068FFF7BEFC2268136D43F00803ED
:102CE00013652268136D23F0040313652268136DC6
:102CF00029690B431365ADE70068FFF7DFFC226825
:102D0000136D43F4006313652268136D23F480632D
:102D100013652268136D296943EA0123136599E756
:102D200002209AE710B4846824F47F4442EA032323
:102D30000B43234383605DF8044B704790F83C30AD
:102D4000012B77D010B50446012380F83C300223D4
:102D500080F83D3002689068374B034093600B6801
:102D6000702B41D01DD8302B16D00FD9502B4DD001
:102D7000602B55D0402B42D1CA6849682068FFF7C4
:102D8000D3FC40212068FFF7F6FC38E0102B03D07D
:102D9000202B01D0002B32D119462068FFF7EBFC25
:102DA0002DE0264A9342F7D014D8B3F1101FF3D088
:102DB000103A9342F0D0B3F5005F20D1CB684A6857
:102DC00089682068FFF7AEFF2268936843F4804368
:102DD000936014E01A4A9342DED010329342DBD063
:102DE000303A93420BD1D7E7CB684A6889682068AC
:102DF000FFF798FF2268936843F0770393600123FD
:102E000084F83D30002084F83C0010BDCA68496851
:102E10002068FFF789FC50212068FFF7ACFCEEE743
:102E2000CA6849682068FFF792FC60212068FFF7B4
:102E3000A2FCE4E7022070478800CEFF30001000BB
:102E40006000100010B401F01F01012303FA01F427
:102E5000036A23EA04030362036A8A40134303629A
:102E60005DF8044B704700000A4600293BD190F8FA
:102E70003E30DBB213F1FF3318BF0123002B7ED1AC
:102E800010B5002A5FD1022380F83E301146044677
:102E900001220068FFF7D6FF23683C4A93420FD017
:102EA00002F5006293420BD002F54062934207D0D4
:102EB00002F58062934203D002F58062934203D10F
:102EC0005A6C42F400425A6422689168304B0B40BD
:102ED000062B56D0B3F5803F55D0136843F001035D
:102EE0001360002010BD04290DD0082913D00C292F
:102EF00019D010291FD090F84330DBB213F1FF3303
:102F000018BF0123BAE790F83F30DBB213F1FF336B
:102F100018BF0123B2E790F84030DBB213F1FF3362
:102F200018BF0123AAE790F84130DBB213F1FF3359
:102F300018BF0123A2E790F84230DBB213F1FF3350
:102F400018BF01239AE7042A09D0082A0BD00C2ABB
:102F50000DD0102A0FD0022380F8433096E70223C9
:102F600080F83F3092E7022380F840308EE702235A
:102F700080F841308AE7022380F8423086E701205A
:102F800070470020AEE70020ACE700BF002C0140F6
:102F90000700010038B504460D4600220068FFF71F
:102FA00051FF2368284A93420FD002F500629342F2
:102FB0000BD002F54062934207D002F58062934243
:102FC00003D002F5806293420DD1196A41F21112C9
:102FD000114208D1196A44F24442114203D15A6C99
:102FE00022F400425A642368196A41F21112114214
:102FF00008D1196A44F24442114203D11A6822F0FE
:1030000001021A605DB1042D0ED0082D10D00C2DD8
:1030100012D0102D14D0012384F8433002E0012394
:1030200084F83E30002038BD012384F83F30F9E7B2
:10303000012384F84030F5E7012384F84130F1E7BB
:10304000012384F84230EDE7002C014090F83C3039
:10305000012B40D030B4012380F83C30022380F8AB
:103060003D300268536895681C4CA24203D004F5B9
:103070000064A24203D123F470034C68234323F07D
:10308000007323F070030C68234353600368134AF2
:10309000934212D0B3F1804F0FD0A2F594329342F5
:1030A0000BD002F58062934207D002F5963293422C
:1030B00003D002F54062934204D125F080058A686E
:1030C00015439D60012380F83D30002380F83C309B
:1030D000184630BC70470220704700BF002C0140EA
:1030E00070477047704770477047704770470000DF
:1030F000EFF305838BB9EFF3108313B9EFF311836B
:103100001BB10A4B1B68022B0AD0084B1B6853B932
:10311000064B01221A60002070476FF005007047CF
:103120006FF0050070474FF0FF307047DC00002063
:1031300008B5EFF30583A3B9EFF3108313B9EFF3E9
:1031400011831BB10B4B1B68022B0DD0094B1B6865
:10315000012B0CD1074B02221A6000F001FE002067
:1031600008BD6FF00500FBE76FF00500F8E74FF0D2
:10317000FF30F5E7DC000020F0B587B000240594AF
:10318000EFF3058444BBEFF3108313B9EFF311831E
:103190001BB12D4B1B68022B1ED0E8B14AB3166839
:1031A000946904B91824631E372B49D8536813F067
:1031B000010F47D1556995B14FEA950C93682BB132
:1031C000D7685B2F02D9176907B1C5B953B14FF062
:1031D000FF35012D1AD02DB3059807B0F0BD4FF083
:1031E000800CEBE7D36863B913696BB14FF0FF351F
:1031F000EFE7002518244FF0800C2E46E9E7012563
:10320000E7E74FF0FF35E4E70025E2E7136992684E
:103210000292019300940B466246314600F032FD63
:103220000590D9E705AA019200940B461FFA8CF28B
:10323000314600F061FD0128CED000230593CBE795
:103240000020CAE70020C8E7DC00002010B4054BCE
:103250001C1D046060330B60802313605DF8044B19
:10326000704700BFDC00002010B4064B03F5187453
:10327000046003F52F730B604FF4807313605DF8E7
:10328000044B7047DC00002000F1080343604FF05E
:10329000FF328260C3600361002303607047002334
:1032A0000361704743684B609A688A609A6851600E
:1032B00099600861036801330360704730B40D689A
:1032C000B5F1FF3F02D000F1080202E0026904E01C
:1032D0001A4653681C68AC42FAD953684B6099602F
:1032E0008A605160086103680133036030BC704735
:1032F00003694268816891608268416851605A68D8
:10330000824206D0002202611A68013A1A601868E7
:10331000704782685A60F5E710B5044601F09AFAE2
:10332000A26BE36B9A4204D0002401F0B5FA204668
:1033300010BD0124F9E710B5044601F08BFAA36B28
:1033400023B1002401F0A8FA204610BD0124F9E7BA
:1033500070B504461646856B026C5AB903681BB1FA
:1033600000200135A56370BD806800F09BFF00233D
:10337000A360F6E76EB9406802F0F8FC226C63685F
:1033800013446360A268934219D3236863600020EA
:10339000E7E7C06802F0EAFC226C5242E36813449B
:1033A000E36021688B4202D2A3681A44E260022ED5
:1033B00001D00020D5E725B1013D0020D1E7002054
:1033C000CFE70020CDE7026C72B110B5C36813449B
:1033D000C3608468A34201D30368C3600C46C1681C
:1033E000204602F0C3FC10BD704738B5054601F019
:1033F00031FA95F8454064B203E000F03BFF013C30
:1034000064B2002C08DD6B6A33B105F1240000F0D2
:10341000A3FE0028F3D0F0E7FF2385F8453001F044
:103420003BFA01F017FA95F8444064B203E000F06B
:1034300021FF013C64B2002C08DD2B6933B105F19A
:10344000100000F089FE0028F3D0F0E7FF2385F894
:10345000443001F021FA38BD38B540B94FF050037F
:1034600083F31188BFF36F8FBFF34F8FFEE70446DE
:103470000D4601F0EFF92168E26B236C03FB0210AB
:10348000A0600020A0636160013A02FB0313E360C7
:10349000FF2384F8443084F84530A5B923691BB96B
:1034A00001F0FAF9012038BD04F1100000F054FEDB
:1034B0000028F5D0084B4FF080521A60BFF34F8FB1
:1034C000BFF36F8FECE704F11000FFF7DDFE04F1AE
:1034D0002400FFF7D9FEE3E704ED00E038B51D4610
:1034E000049C0B4649B12260E0632364012120461D
:1034F000FFF7B2FF84F84C5038BD2460F4E740B9C0
:103500004FF0500383F31188BFF36F8FBFF34F8FDA
:10351000FEE710B584B0044653B192B189B94FF0BB
:10352000500383F31188BFF36F8FBFF34F8FFEE714
:103530004FF0500383F31188BFF36F8FBFF34F8FAA
:10354000FEE74AB941B14FF0500383F31188BFF34E
:103550006F8FBFF34F8FFEE75020039003985028E2
:1035600008D04FF0500383F31188BFF36F8FBFF380
:103570004F8FFEE720461C46039B012384F846300C
:1035800000949DF81830FFF7A9FF204604B010BD45
:10359000F0B585B0019260B1044699B9026C8AB168
:1035A0004FF0500383F31188BFF36F8FBFF34F8F3A
:1035B000FEE74FF0500383F31188BFF36F8FBFF323
:1035C0004F8FFEE7022B0BD1E26B012A08D04FF0A0
:1035D000500383F31188BFF36F8FBFF34F8FFEE764
:1035E0001E460F4600F04EFE50B9019B53B14FF0FE
:1035F000500383F31188BFF36F8FBFF34F8FFEE744
:1036000000253AE0002538E0324639462046FFF7EB
:103610009FFE636A4BB9A8B13B4B4FF080521A60D2
:10362000BFF34F8FBFF36F8F0CE004F1240000F065
:1036300093FD38B1344B4FF080521A60BFF34F8F77
:10364000BFF36F8F01F028F9012005B0F0BD01F044
:1036500023F90020F9E702A800F0C2FD012519E0D6
:10366000002384F8443021E0002384F8453023E02F
:103670002046FFF7BAFE00F04FFC01F0EBF8A26B1A
:10368000E36B9A42C0D3022EBED0019B002BDED04A
:10369000002DE0D001F000F900F0A8FB01F0DAF80D
:1036A00094F844305BB2B3F1FF3FD9D094F8453081
:1036B0005BB2B3F1FF3FD7D001F0EEF801A902A849
:1036C00000F098FDC8B92046FFF726FE0028CFD0AD
:1036D000019904F1100000F007FD2046FFF785FE78
:1036E00000F01AFC0028C8D1074B4FF080521A6036
:1036F000BFF34F8FBFF36F8FBFE72046FFF775FE15
:1037000000F00AFC0020A0E704ED00E02DE9F843FA
:1037100060B1044699B9006C88B14FF0500383F34F
:103720001188BFF36F8FBFF34F8FFEE74FF0500349
:1037300083F31188BFF36F8FBFF34F8FFEE7022B28
:103740000BD1E06B012808D04FF0500383F31188B0
:10375000BFF36F8FBFF34F8FFEE71F46904689463A
:1037600001F09EF9EFF311864FF0500383F31188B7
:10377000BFF36F8FBFF34F8FA26BE36B9A4203D3FC
:10378000022F01D000200FE094F845506DB23A4668
:1037900049462046FFF7DCFDB5F1FF3F08D06B1C22
:1037A0005BB284F84530012086F31188BDE8F883C8
:1037B000636A5BB104F1240000F0CEFC40B1B8F1C3
:1037C000000F07D00120C8F80000EDE70120EBE76B
:1037D0000120E9E70120E7E7F0B585B0019260B18B
:1037E000044699B9036C8BB14FF0500383F31188F1
:1037F000BFF36F8FBFF34F8FFEE74FF0500383F39C
:103800001188BFF36F8FBFF34F8FFEE70F4600F0B5
:1038100039FD50B9019B53B14FF0500383F3118828
:10382000BFF36F8FBFF34F8FFEE700263EE0002609
:103830003CE039462046FFF7C6FD013DA5632369FC
:1038400023B901F029F8012005B0F0BD04F1100002
:1038500000F082FC0028F4D0344B4FF080521A6004
:10386000BFF34F8FBFF36F8FEBE701F015F8002028
:10387000EAE702A800F0B4FC012621E0002384F866
:10388000443029E0002384F845302BE02046FFF740
:10389000ACFD00F041FB09E02046FFF7A6FD00F07B
:1038A0003BFB2046FFF747FD00283DD100F0D2FF4B
:1038B000A56B002DBDD1019B002BD6D0002ED8D0FA
:1038C00000F0EAFF00F092FA00F0C4FF94F84430F0
:1038D0005BB2B3F1FF3FD1D094F845305BB2B3F1A6
:1038E000FF3FCFD000F0D8FF01A902A800F082FC72
:1038F0000028D1D12046FFF71EFD0028C6D001992F
:1039000004F1240000F0F0FB2046FFF76EFD00F00C
:1039100003FB0028CAD1054B4FF080521A60BFF359
:103920004F8FBFF36F8FC1E700208DE704ED00E0FC
:103930000023072B0CD8074A52F833200AB1013371
:10394000F7E7044A42F8331002EBC30358607047AC
:10395000704700BFF019002070B504460D461646AA
:1039600000F078FF94F844305BB2B3F1FF3F0DD024
:1039700094F845305BB2B3F1FF3F0BD000F08CFF01
:10398000A36B5BB12046FFF730FD70BD002384F8C8
:103990004430EDE7002384F84530EFE7324629460E
:1039A00004F1240000F0BAFBECE70000074B9B6A2F
:1039B0001B6833B1054B9A6AD268D2685268DA62E2
:1039C0007047024B4FF0FF32DA62704798070020D1
:1039D0002DE9F04781460D4617469A46089EDDF8C8
:1039E00024800A9C9200A521206B02F0CAF9236B67
:1039F00007F18042013A03EB820727F0070785B3FE
:103A000000230F2B07D8E95CE21882F83410EA5C37
:103A10000AB10133F5E7002384F84330372E00D98B
:103A20003726E662E66400252565201DFFF737FC92
:103A300004F11800FFF733FC2461C6F13806A661D3
:103A40006462656584F8585052464946384600F02D
:103A5000D7FE2060B8F1000F01D0C8F80040BDE8E3
:103A6000F087002384F83430D8E7000070B50024D4
:103A700007E004EB8402930010481844FFF704FCAD
:103A80000134372CF5D90E4C04F592663046FFF719
:103A9000FBFB04F2A4452846FFF7F6FB04F11400F3
:103AA000FFF7F2FB04F59760FFF7EEFB2046FFF708
:103AB000EBFBA662C4F8CC5470BD00BFC807002061
:103AC0009807002038B5044600F0C4FE274BD3F811
:103AD000D0240132C3F8D024D3F8D43473B1234BAB
:103AE000D3F8D8348BB9214BD3F8D434DA6AE36AEB
:103AF0009A420AD81D4BC3F8D44406E01B4BC3F8C6
:103B0000D444D3F8D034012B2CD0184AD2F8DC346A
:103B10000133C2F8DC346364E36AD2F8E0249342F0
:103B200002D9124AC2F8E034104D05F1300003EB1F
:103B300083039A00211D1044FFF7B4FB00F0ACFE94
:103B4000D5F8D8346BB1D5F8D434DA6AE36A9A423E
:103B500007D2074B4FF080521A60BFF34F8FBFF36D
:103B60006F8F38BDFFF782FFCFE700BF98070020B7
:103B700004ED00E010B5044690F8593033B9006BFD
:103B800001F096F8204601F093F810BD012B0AD001
:103B9000022BFAD04FF0500383F31188BFF36F8FDD
:103BA000BFF34F8FFEE701F083F8EEE738B517E07B
:103BB00000F050FE0D4CD4F8C434DD68281DFFF72A
:103BC00097FBD4F8D034013BC4F8D034D4F8E434B3
:103BD000013BC4F8E43400F05FFE2846FFF7CAFF5B
:103BE000024BD3F8E434002BE2D138BD9807002013
:103BF00008B5FFF7DBFF064B1B6B012BF9D9054B13
:103C00004FF080521A60BFF34F8FBFF36F8FF0E712
:103C10009807002004ED00E070B504460E46184BEE
:103C2000D3F8E854D3F8D4040430FFF761FBB4F1BF
:103C3000FF3F12D02C44124BD3F8D4345C60A54221
:103C400014D80F4DA86AD5F8D4140431FFF736FB09
:103C5000EB6AA34212D9EC6210E0002EEAD00848C9
:103C6000D0F8D4140431FFF71DFB07E0044BD3F860
:103C7000CC04D3F8D4140431FFF720FB70BD00BF8F
:103C80009807002070B586B00B9D0C9C45B94FF08D
:103C9000500383F31188BFF36F8FBFF34F8FFEE79D
:103CA00044B94FF0500383F31188BFF36F8FBFF314
:103CB0004F8FFEE75C260496049E5C2E08D04FF0E2
:103CC000500383F31188BFF36F8FBFF34F8FFEE76D
:103CD000049E2563022584F859500025039502941B
:103CE00005AD01950A9D0095FFF772FE2046FFF78E
:103CF000E9FE059806B070BD2DE9F04385B0074692
:103D0000884615469946900000F04CFF08B30646D9
:103D10005C2000F047FF0446B8B10663E4B100231D
:103D200084F85930039302940D9B01930C9B0093EC
:103D30004B462A4641463846FFF74AFE2046FFF7E3
:103D4000C1FE012005B0BDE8F083304600F0B0FFB1
:103D5000E4E74FF0FF30F5E74FF0FF30F2E7000007
:103D600010B588B000240594069407AA06A905A8F2
:103D7000FFF76CFA059B0293069B01930094234680
:103D8000079A17491748FFF77DFF40B100F032FB53
:103D9000012806D0B0F1FF3F18D008B010BD0020B8
:103DA000F6E74FF0500383F31188BFF36F8FBFF333
:103DB0004F8F0D4B4FF0FF32DA620122C3F8D82447
:103DC0000022C3F8E82400F0E7FDE6E74FF05003D7
:103DD00083F31188BFF36F8FBFF34F8FFEE700BFF0
:103DE000445E0008F13B000898070020034AD2F81F
:103DF000EC340133C2F8EC34704700BF9807002060
:103E0000014BD3F8E8047047980700202DE9F041F2
:103E1000404BD3F8EC34002B6DD13E4BD3F8E85433
:103E20000135C3F8E854CDB99B6A1B6843B14FF024
:103E3000500383F31188BFF36F8FBFF34F8FFEE7FB
:103E4000344B9A6AD3F8CC149962C3F8CC24D3F8D3
:103E5000F0240132C3F8F024FFF7A8FD2D4BDB6AF4
:103E6000AB423ED900242B4AD2F8D434DB6A03EBB0
:103E7000830399000A44136B012B43D9012441E0C9
:103E80000124244B9B6A1B686BB3224B9B6ADB6843
:103E9000DE6873689D422BD306F104084046FFF7A5
:103EA00027FAB36A1BB106F11800FFF721FAF36A8B
:103EB000184AD2F8E024934202D9164AC2F8E034F4
:103EC000144F07F1300003EB83039A00414610447E
:103ED000FFF7E8F9F26AD7F8D434DB6A9A42CFD216
:103EE000CFE70024CDE70B4B4FF0FF32DA62BAE7A1
:103EF000084AD362B7E7074AD2F8F4340133C2F86C
:103F0000F4340024034BD3F8F83403B101242046E1
:103F1000BDE8F08198070020394BD3F8EC3443B961
:103F20004FF0500383F31188BFF36F8FBFF34F8FB0
:103F3000FEE770B500F08EFC314BD3F8EC24013A6B
:103F4000C3F8EC24D3F8EC34002B54D12C4BD3F829
:103F5000D03423B9002400F09FFC204670BD00241B
:103F6000274B5B692BB3264D2B6ADC6804F11800E4
:103F7000FFF7BEF9261D3046FFF7BAF9E36AD5F818
:103F8000E024934201D9C5F8E0341D4D05F130001D
:103F900003EB83039A0031461044FFF783F9E26A8A
:103FA000D5F8D434DB6A9A42DAD30122C5F8F82472
:103FB000D6E70CB1FFF7FAFC114BD3F8F44464B127
:103FC000FFF724FF18B10E4B0122C3F8F824013C7F
:103FD000F6D10B4B0022C3F8F424094BD3F8F83484
:103FE0005BB1084B4FF080521A60BFF34F8FBFF3A5
:103FF0006F8F0124AFE70024ADE70024ABE700BFDB
:104000009807002004ED00E010B5B0B104460F4B56
:10401000D3F8EC3443B14FF0500383F31188BFF36E
:104020006F8FBFF34F8FFEE7FFF7E0FE00212046C2
:10403000FFF7F2FDFFF770FF38B9054B4FF08052E4
:104040001A60BFF34F8FBFF36F8F10BD980700202A
:1040500004ED00E0234BD3F8EC3423B1214B0122D3
:10406000C3F8F82470471F4B0022C3F8F824D3F894
:10407000E03403EB830291001A4A0A44126B5AB9E6
:104080000BB1013BF5E74FF0500383F31188BFF309
:104090006F8FBFF34F8FFEE710B4124A9900CC1810
:1040A000A0001044446B64684463303219448800B3
:1040B0000830024494420DD00A4903EB8300820089
:1040C0000A44526BD268C1F8D424C1F8E0345DF8D8
:1040D000044B704761680348142202FB03025163DA
:1040E000EAE700BF9807002040B94FF0500383F380
:1040F0001188BFF36F8FBFF34F8FFEE710B50C46EB
:10410000054BD3F8D4141831FFF7D8F80121204615
:10411000FFF782FD10BD00BF9807002038B540B9F9
:104120004FF0500383F31188BFF36F8FBFF34F8FAE
:10413000FEE70C461546074AD2F8D4141831FFF7AB
:10414000B1F80DB14FF0FF3429462046FFF764FD6A
:1041500038BD00BF9807002038B5C368DC6844B993
:104160004FF0500383F31188BFF36F8FBFF34F8F6E
:10417000FEE704F118052846FFF7BAF8154BD3F807
:10418000EC3403BB251D2846FFF7B2F8E36A114A59
:10419000D2F8E024934202D90E4AC2F8E03403EB8D
:1041A00083039A0029460C481044FFF77BF8E26A23
:1041B000084BD3F8D434DB6A9A4209D90120054B65
:1041C000C3F8F80438BD29460448FFF76BF8EEE75A
:1041D0000020F7E798070020C8070020AC07002060
:1041E000034BD3F8F0240260D3F8E83443607047FF
:1041F00098070020F8B550B1054689B94FF0500333
:1042000083F31188BFF36F8FBFF34F8FFEE74FF03B
:10421000500383F31188BFF36F8FBFF34F8FFEE717
:104220000C4600F017FB124BD3F8E81468680A1A22
:104230002368B3F1FF3F17D02F680D4ED6F8F06416
:10424000B74201D0884211D9934203D8002323609A
:10425000012405E09B1A23602846FFF7C1FF0024D4
:1042600000F01AFB2046F8BD0024F9E70124F7E727
:1042700098070020024B0122C3F8F824704700BFC2
:1042800098070020064BD3F8D8343BB1044BD3F841
:10429000EC340BB1002070470220704701207047BA
:1042A0009807002000283BD038B504461F4AD2F8B2
:1042B000D424824208D04FF0500383F31188BFF317
:1042C0006F8FBFF34F8FFEE7026D42B94FF050037F
:1042D00083F31188BFF36F8FBFF34F8FFEE7013A6F
:1042E0000265C06AE16C88421CD0EAB9251D2846E7
:1042F000FEF7FEFFE36CE362C3F13802A2610B4AF2
:10430000D2F8E024934202D9084AC2F8E0342946A0
:10431000074A142000FB0320FEF7C4FF012038BD2C
:10432000002070470020FAE70020F8E798070020F7
:10433000C8070020064B1A6813682BB901230360D5
:1043400023B9D368186870470023F8E70020704746
:10435000940C002008B54160006191420CD8D21A3B
:1043600083699A4201D3012010E0011D094B58686E
:10437000FEF7A4FF002009E09A4201D2994206D23A
:10438000011D044B1868FEF799FF002008BD0120AD
:10439000FCE700BF940C002070B582B000F05AFA20
:1043A000124B9B681BB100F077FA02B070BD0F4C46
:1043B00004F10C063046FEF767FF04F1200528469D
:1043C000FEF762FF266065600023009304F134036A
:1043D00004F1840210210A20FFF791F8A060002860
:1043E000E1D00349FFF7A4FADDE700BF940C0020F9
:1043F0004C5E000810B588B0FFF7CEFF134B9B68EA
:10440000D3B100240594069407AA06A905A8FEF7CF
:104410002BFF059B0293069B0193022300932346E7
:10442000079A0B490B48FFF72DFC084BC3F82401F2
:1044300010B1012008B010BD4FF0500383F3118874
:10444000BFF36F8FBFF34F8FFEE700BF940C0020C8
:10445000545E00086D470008C8B130B585B01546F8
:104460000446174A906840B31A4600910195029499
:1044700005291DDCFFF706FF022811D000231A468C
:1044800069460F488068FFF783F805B030BD4FF0EC
:10449000500383F31188BFF36F8FBFF34F8FFEE795
:1044A0000023089A694606488068FFF771F8ECE730
:1044B00000236946FFF72AF9E7E70020E5E700BF98
:1044C000940C0020214B1B681A68002A39D070B563
:1044D00082B0DB681E68DC68251D2846FEF708FFF1
:1044E000236A2046984794F8283013F0040F0AD125
:1044F000164B1B681A68002AEBD1144A51681160E8
:10450000536002B070BDA36933449E4207D263601A
:10451000246129460D4B1868FEF7D0FEE8E700211C
:1045200000910B4632462046FFF796FF0028DFD168
:104530004FF0500383F31188BFF36F8FBFF34F8F9A
:10454000FEE7024A5168116053607047940C0020E6
:1045500038B50546FFF754FC0446084BD3F828311C
:10456000834206D800232B60044BC3F82841204621
:1045700038BDFFF7A7FF01232B60F5E7940C00205F
:1045800070B582B005460E46174B1B68DB68DC68C9
:10459000201DFEF7ADFE94F8283013F0040F08D16B
:1045A00023F0010384F82830236A2046984702B09C
:1045B00070BDA1692B46324629442046FFF7CAFE4A
:1045C0000028F1D0002100910B462A462046FFF733
:1045D00043FF0028E8D14FF0500383F31188BFF365
:1045E0006F8FBFF34F8FFEE7940C002070B582B041
:1045F00006460C46FFF7FAFB01A8FFF7A9FF019B4F
:1046000023BB05460CB9B04217D224B1114B5B68ED
:104610001B68CBB901242246711B0E4B9868FFF72B
:104620009BF9FFF779FC98B90B4B4FF080521A6059
:10463000BFF34F8FBFF36F8F0AE0FFF76DFC294682
:104640003046FFF79DFF03E00024E4E7FFF764FC3A
:1046500002B070BD940C002004ED00E030B589B0CC
:1046600002E0049B002B0FDA002204A93E4B98685D
:10467000FFF7B2F8002874D0049B002BF1DA0799F9
:104680000698059B9847ECE7069C636913B1201DCB
:10469000FEF72EFE03A8FFF75BFF049B092BE3D870
:1046A000DFE803F00505053138510505313894F888
:1046B000283043F0010384F828300599A5690B469A
:1046C000024629442046FFF745FE0028CCD0236A45
:1046D0002046984794F8283013F0040FC4D0A269FC
:1046E000002100910B46059802442046FFF7B4FED6
:1046F0000028B9D14FF0500383F31188BFF36F8FB7
:10470000BFF34F8FFEE794F8283023F0010384F8BD
:104710002830A9E794F8283043F0010384F82830C2
:104720000599A16131B10346024601442046FFF7D5
:1047300011FE99E74FF0500383F31188BFF36F8F99
:10474000BFF34F8FFEE794F8283013F0020F04D028
:1047500023F0010384F8283086E7204600F0A8FA09
:1047600082E709B030BD00BF940C002000B583B0D3
:1047700001A8FFF7DFFD0199FFF738FFFFF76EFF94
:10478000F6E7000082B0002301930D4B1B68B3F1E4
:10479000FF3F08D04FF0500383F31188BFF36F8FB2
:1047A000BFF34F8FFEE74FF0500383F31188BFF341
:1047B0006F8FBFF34F8F019B002BFCD002B070476F
:1047C0000800002008480068006880F308884FF05F
:1047D000000080F3148862B661B6BFF34F8FBFF359
:1047E0006F8F00DF00BF000008ED00E0DFF80C0075
:1047F000016841F4700101607047000088ED00E03D
:104800004FF0807340F8043C21F0010140F8081C8F
:10481000054B40F80C3C40F8202C6FF0020340F8A8
:10482000243C4438704700BF854700080000000062
:10483000074B19680868B0E8F04F80F30988BFF3A8
:104840006F8F4FF0000080F311887047AFF3008046
:104850006C0C00204FF0500383F31188BFF36F8F6F
:10486000BFF34F8F0A4A136801331360012B00D046
:104870007047084B1B6813F0FF0FF9D04FF050033F
:1048800083F31188BFF36F8FBFF34F8FFEE700BF35
:104890000800002004ED00E0094B1B6843B94FF00D
:1048A000500383F31188BFF36F8FBFF34F8FFEE781
:1048B000013B034A13600BB983F31188704700BFB3
:1048C00008000020000000000000000000000000C0
:1048D000EFF30980BFF36F8F154B1A681EF0100FAE
:1048E00008BF20ED108A20E9F04F10602DE9090083
:1048F0004FF0500080F31188BFF34F8FBFF36F8FDD
:10490000FFF7A8FB4FF0000080F3118809BC19687D
:104910000868B0E8F04F1EF0100F08BFB0EC108A26
:1049200080F30988BFF36F8F704700BFAFF300803B
:104930006C0C002008B54FF0500383F31188BFF3CF
:104940006F8FBFF34F8FFFF761FA18B1034B4FF032
:1049500080521A60002383F3118808BD04ED00E043
:10496000084A0023136008490B60084B1B6808497C
:10497000A1FB03139B09013B06490B60072313604E
:10498000704700BF10E000E018E000E05400002095
:10499000D34D621014E000E0394B1A68394B9A424B
:1049A0000DD0374B1A68384B9A4211D14FF0500353
:1049B00083F31188BFF36F8FBFF34F8FFEE74FF084
:1049C000500383F31188BFF36F8FBFF34F8FFEE760
:1049D00010B582B02D4B1A78D2B20192FF221A7014
:1049E0001B78DBB28DF803309DF8033003F05003E1
:1049F000274A13700723536009E0254A5368013B97
:104A000053609DF803305B00DBB28DF803309DF8F6
:104A1000033013F0800FF0D11D4B5B68032B08D0DF
:104A20004FF0500383F31188BFF36F8FBFF34F8FA5
:104A3000FEE71B0203F4E063154A5360019BDBB2FF
:104A4000124A1370134B1A6842F470021A601A6803
:104A500042F070421A60FFF783FF00240E4B1C6087
:104A6000FFF7C4FE0D4A136843F040431360FFF79D
:104A7000A9FEFFF7EFFAFFF785FE204602B010BD52
:104A800000ED00E071C20F4170C20F4100E400E090
:104A9000C00D002020ED00E00800002034EF00E011
:104AA000EFF305830F2B0FD9104A9B5CDBB2104A42
:104AB00012789A4208D94FF0500383F31188BFF35C
:104AC0006F8FBFF34F8FFEE70A4B1B6803F4E06361
:104AD000074A5268934208D94FF0500383F3118874
:104AE000BFF36F8FBFF34F8FFEE77047F0E300E037
:104AF000C00D00200CED00E0134A12F0070F20D08B
:104B0000D11D21F00701C1F5406313440A460E4947
:104B1000C1F8002C0020C1F8040C1344083B23F01A
:104B20000703C1F8083C58601860981A5060136079
:104B3000C1F80C0CC1F8100C4FF00043C1F8143C44
:104B400070474FF44063E2E7C80D002010B4134BE8
:104B50001A6882421CD359685C18844203D14068A9
:104B600001445960184641684418A24214D10C4CC3
:104B7000D4F8084CA2420DD05268114441601A6822
:104B800012680260984200D018605DF8044B7047CC
:104B90001346DDE70460F5E70260F3E7C81900207B
:104BA000C80D002070B50446FFF720F93F4BD3F83D
:104BB000083CC3B13D4BD3F8143C1C426CD1ACB1A2
:104BC000083414F0070F11D024F00704083404F05F
:104BD00007035BB14FF0500383F31188BFF36F8F6E
:104BE000BFF34F8FFEE7FFF787FFE3E7002C55D0B9
:104BF0002E4BD3F8103CA34252D32C4BD3F8005C7D
:104C000003F5406301E02B4615466A68A24202D2D2
:104C10002A68002AF7D1254AD2F8082CAA4241D0A6
:104C20001E6808362A681A606B681B1B102B10D987
:104C3000281910F0070F08D04FF0500383F31188A4
:104C4000BFF36F8FBFF34F8FFEE743606C60FFF7DA
:104C50007DFF6968154AD2F8103C5B1AC2F8103C17
:104C6000D2F80C2C934202D2104AC2F80C3C0F4BE3
:104C7000D3F8143C0B436B6000232B60FFF74CF917
:104C800016F0070F10D04FF0500383F31188BFF3D5
:104C90006F8FBFF34F8FFEE70026EFE70026EDE7AB
:104CA0000026EBE70026E9E7304670BDC80D00207E
:104CB00098B338B50446A0F1080550F8042C1749FC
:104CC000D1F8141C0A4208D14FF0500383F3118825
:104CD000BFF36F8FBFF34F8FFEE750F8080C40B162
:104CE0004FF0500383F31188BFF36F8FBFF34F8FE3
:104CF000FEE722EA010244F8042CFFF777F854F8A3
:104D0000041C064AD2F8103C0B44C2F8103C28465A
:104D1000FFF71CFFFFF700F938BD7047C80D0020F2
:104D200070B590B0054600240B940C940D940E942D
:104D30000F9423E003F1784303F50433DA6C42F077
:104D40000102DA64DB6C03F001030193019B674805
:104D5000EA00561BB3000B440C3300EB43039B8863
:104D60000B9301230C930E93531B5A000A440BA977
:104D700050F82200FCF7A8FC0134E4B2062C42D81B
:104D80002146C5EBC50253002344584A52F823304C
:104D9000B3F1904FCED0564A934213D0554A934226
:104DA0001BD0554A934223D0544A9342CFD1544BFF
:104DB000DA6C42F01002DA64DB6C03F01003059346
:104DC000059BC4E74E4BDA6C42F00202DA64DB6CFE
:104DD00003F002030293029BB9E7494BDA6C42F0FD
:104DE0000402DA64DB6C03F004030393039BAEE775
:104DF000434BDA6C42F00802DA64DB6C03F0080320
:104E00000493049BA3E7002426E003F1784303F511
:104E10000433DA6C42F00102DA64DB6C03F0010364
:104E20000693069B3149EA00561BB300034418332E
:104E300001EB43039B880B9301230C930E93521BAE
:104E400002FA03F303440A3301EB83030BA9586806
:104E5000FCF73AFC0134E4B2012C44D82046C5EBFF
:104E6000C5035A0022440A32204B03EB82025368E6
:104E7000B3F1904FC9D01E4A934213D01D4A9342BA
:104E80001BD01D4A934223D01C4A9342CAD11C4BCB
:104E9000DA6C42F01002DA64DB6C03F010030A9360
:104EA0000A9BBFE7164BDA6C42F00202DA64DB6C55
:104EB00003F002030793079BB4E7114BDA6C42F04F
:104EC0000402DA64DB6C03F004030893089BA9E78F
:104ED0000B4BDA6C42F00802DA64DB6C03F0080377
:104EE0000993099B9EE710B070BD00BFAC5D000840
:104EF0000004004800080048000C0048001000486A
:104F0000001002400022032A16D870B400EB4004BF
:104F100063000A4C1C441444094BA3FB0153DB08F7
:104F200003EB83067500491B617099B20132D2B25E
:104F3000032AEBD970BC7047704700BFE01900200E
:104F4000CDCCCCCC00EB40004300024A0121D1542F
:104F5000704700BFE01900202DE9F04100250DB198
:104F6000BDE8F0812E4605EB45025300504AD45C63
:104F7000012C05D0002C00F097800135EDB2EEE752
:104F800005EB45035A004A4B134493F805802C4621
:104F900014E04848F1008A1B93002344183300EBC7
:104FA0004303891B4A0022440A3200EB820001229B
:104FB00099884068FCF75FFC0134E4B2012CE8D921
:104FC00006EB46035A003A4B134443445F782C46A1
:104FD00013E03848F200911B8B0023440C3300EBA4
:104FE0004303921B510001EB040C0022998850F8F6
:104FF0002C00FCF740FC0134E4B2062C1AD8C7EBB5
:10500000C7022D4B13441B5DDBB2012BE1D02948B5
:10501000F200911B8B0023440C3300EB4303921BE3
:10502000510001EB040C0122998850F82C00FCF788
:1050300022FCE0E71F48F1008A1B93004344183329
:1050400000EB4303891B4A00904408F10A0800EB77
:10505000880800229988D8F80400FCF70CFC73003B
:1050600033445900124A0A4453790133DBB2537175
:10507000022B82D10E4B0B4400225A717DE70D4862
:10508000F1008A1B93002344183300EB4303891B70
:105090004A0022440A3200EB8200012299884068CB
:1050A000FCF7E9FB0134E4B2012CE8D965E700BF65
:1050B000E0190020AC5D00080C000020000000009A
:1050C00008B507EE900AF8EE677A17EE900AFBF73C
:1050D0000BFA02460B4625A1D1E90001FBF786FB3E
:1050E0000022214BFBF7A0F802460B4614A1D1E9A0
:1050F0000001FBF77BFB12A3D3E90023FBF776FB50
:1051000041EC100B00F0A4FB0FA3D3E9002351ECFA
:10511000100BFBF741FA0EA3D3E90023FBF786F847
:1051200002460B460CA1D1E90001FBF75FFB0CA383
:10513000D3E90023FBF778F841EC100B08BD00BF62
:10514000000000000088C3406666666666A2724082
:1051500000000000000CAC400000008016553041FB
:1051600066666666661271400000F03F000000004F
:1051700000FEAF40F0B589B0002403940494059478
:10518000069407942C4BDA6C42F02002DA64DA6C55
:1051900002F020020092009ADA6C42F00102DA6416
:1051A000DA6C02F001020192019ADA6C42F002021A
:1051B000DA64DB6C03F002030293029B1F4F22466A
:1051C00003213846FCF757FB22464FF470614FF03D
:1051D0009040FCF750FB1A4E22464FF4BC7130460B
:1051E000FCF749FB032303930125049505940694DA
:1051F00003A93846FCF768FA8423039304940594C2
:1052000003A94FF09040FCF75FFA4FF470630393EB
:1052100004950594069403A94FF09040FCF754FAC6
:105220004FF4BC73039304950594069403A9304688
:10523000FCF74AFA09B0F0BD001002400014004823
:105240000004004870B58CB0002409940A940B94B3
:105250002022214601A800F094FD184D4FF0A043F4
:105260002B606C60AC60EC602C616C610426AE61FC
:105270002C776C7701232B6285F82440EC622C6339
:1052800085F83840EC6385F840402846FBF776FC0B
:10529000099409A92846FCF733F9094B0193062321
:1052A000029303947F230493059606940DEB060165
:1052B0002846FBF717FE0CB070BD00BF7C1A00201B
:1052C0000200300430B58FB000240A940B940C9483
:1052D0000D94079408940994009401940294039403
:1052E000049405940694164D164B2B606C60AC60CC
:1052F00042F21073EB602C61AC612846FDF7DAFBDB
:105300004FF480530A930AA92846FDF717FD284653
:10531000FDF7FFFB0794099407A92846FDF796FEC1
:10532000602300930194029404940822694628465D
:10533000FDF764FC284600F0E1F90FB030BD00BF76
:10534000301A00200004004084B000B589B00DF18F
:10535000280C8CE80F001D996046FDF71BFEBDF878
:1053600078300D930AA8FDF7D4FB60230193BDF8B4
:105370007C3002930023039305931D9A01A90AA888
:10538000FDF73CFC1D990AA8FDF76EFD09B05DF81C
:1053900004EB04B07047000070B592B04B4B19227B
:1053A0001A8000225A8010E0013989B2198028221F
:1053B0005A80FFF7A7FD12E0444B5B882BB3013BFB
:1053C000424A53803220FEF71FFE80214FF090406A
:1053D000FCF74AFA18B93D4B19880A29E4D832205B
:1053E000FEF712FE04214FF09040FCF73DFA002832
:1053F000E2D1364B19884529DED8013189B21980AE
:1054000028225A80FFF77EFDD6E7314C2046FBF775
:10541000FBFF30492046FBF7DBFC0028D2D12046B9
:10542000FBF75CFDFFF74CFE00222B4B51EC100B01
:10543000FAF7FCFEFBF760FB84B221460020FFF781
:1054400061FD224B1B88A34222D801339C42B9DD67
:10545000002240212148FCF70EFA214E4FF4FA6356
:10546000119340F6FF73109308230F936C4606F1D7
:1054700010050FCD0FC40FCD0FC40FCD0FC495E88D
:10548000070084E8070096E80F00FFF75DFF99E743
:10549000012240211148FCF7EEF9114E40F6FF734E
:1054A0001193109308230F936C4606F110050FCD4E
:1054B0000FC40FCD0FC40FCD0FC495E8070084E8CB
:1054C000070096E80F00FFF73FFF7BE7E619002093
:1054D0007C1A002040420F000000E03F000400481A
:1054E000301A002008B50520FEF78EFDFFF734FDC9
:1054F000F9E710B5A4B03822002116A800F041FC4D
:105500000024119412941394149415944422214667
:10551000684600F036FC4FF40070FCF7B1F9022346
:1055200016934FF48072199240221A921D931E9383
:1055300004221F921422209221932293239316A8CF
:10554000FCF750FA0F23119303231293139414942E
:105550001594012111A8FCF7FDFC4FF400430093C2
:105560004FF000530F936846FCF728FE24B010BD9F
:1055700000B583B0FBF7E0FAFFF7BBFFFFF7FAFDDA
:10558000FFF760FEFFF79EFE0020FFF7C9FB00203B
:10559000FFF7D8FC00210846FFF7B4FC124B9A6DC8
:1055A00042F002029A659B6D03F002030193019B96
:1055B0003C210E48FDF758FCFDF79AFD0C4C2246A5
:1055C00000210C48FDF7D8FD0B4B186004F12402B4
:1055D00000210A48FDF7D0FD094B1860FDF7A8FD32
:1055E0000848FBF711FFFEE700100240301A0020C8
:1055F000E45D000899530008E81A0020E55400080B
:10560000EC1A00207C1A002008B50268034B9A426D
:1056100000D008BDFBF7A0FAFBE700BF0010004078
:1056200000B583B0104B1A6E42F001021A661A6E72
:1056300002F001020092009A9A6D42F080529A653F
:105640009B6D03F080530193019B00220F216FF0AB
:105650000100FBF7F7FF054A936843F4804393602A
:1056600003B05DF804FB00BF001002400070004072
:1056700000B589B000230393049305930693079321
:105680000368B3F1A04F02D009B05DF804FB03F149
:10569000704303F50433DA6C42F40052DA64DA6CD6
:1056A00002F400520192019ADA6C42F00102DA64CB
:1056B000DB6C03F001030293029B0123039303239A
:1056C000049303A94FF09040FBF7FEFFDCE70000D6
:1056D0000268094B9A4200D0704782B003F5033349
:1056E0009A6D42F002029A659B6D03F002030193EA
:1056F000019B02B0704700BF0004004000B587B0B6
:1057000000230193029303930493059302680D4BC6
:105710009A4202D007B05DF804FB03F50333DA6C5C
:1057200042F00202DA64DB6C03F002030093009B98
:105730000123019302230293059301A90248FBF779
:10574000C3FFE7E7000400400004004800B589B04B
:10575000002201463620FBF775FF3620FBF7A6FF37
:10576000144B9A6D42F010029A659B6D03F0100382
:105770000193019B02A903A8FCF702FDFCF7EEFCD4
:105780000D4BA3FB00239B0C013B0C480C4A026011
:1057900040F2E732C2604360002303618360FDF79B
:1057A00089F918B1012009B05DF804FB0348FCF742
:1057B000EDFFF8E70010024083DE1B43F01A0020E3
:1057C000001000407047FEE7FEE7FEE7FEE7704787
:1057D00008B50248FDF703F808BD00BFF01A002025
:1057E000054BD3F8882042F47002C3F888204FF0AC
:1057F00000629A60704700BF00ED00E00D488546EA
:105800000D480E490E4A002302E0D458C450043318
:10581000C4188C42F9D30B4A0B4C002301E01360EF
:105820000432A242FBD3FFF7DBFF00F07BFAFFF765
:105830009FFEFEE70080002000000020C000002046
:10584000785E0008C00000203C1B0020FEE700003E
:10585000F0B52DED028B8BB055EC104B00F078F8C5
:10586000364BB0EE408AF0EE608A93F90060731C0C
:105870000DD022462B4620462946FBF727F930B9A2
:105880000022002320462946FBF716F938B1B0EE76
:10589000480AF0EE680A0BB0BDEC028BF0BD284B55
:1058A0000890CDE90245CDE904450193B6B9254FED
:1058B0004FF060462046294600220023CDE90667C6
:1058C000FBF7D2F888B302230093684600F01AFA77
:1058D00098B1089BB3B99DED068BD8E71A4B00220F
:1058E000CDE906232046294600220023FBF7BCF819
:1058F00068B102239E420093E7D100F00DFA222303
:105900000360E6E700F008FA089B0360E3E7012381
:10591000022E00930BD100F0FFF9212303600B4806
:1059200000F0F2F98DED060BD3E7012300936846F2
:1059300000F0E8F90028F2D1EDE700BF58000020A0
:105940006C5E0008FFFFEFC70000F0FF485E000834
:105950002DE9F04F51EC100BB1F5801F85B00B46CF
:1059600080F2CE8021F00042024300F0D88000296E
:10597000C0F2EA800022DE4BFAF70EFEDD4A0B464B
:1059800093426FF0350700F3C180C3F3130505F5AB
:10599000152606F6647606F4801686F07F5282F4A9
:1059A000401242EA05011C150022D34BFAF73CFCD9
:1059B000AB1CA4F2FF34C3F313033C44022B04EBEF
:1059C000165482468B464FF0000240F3B3804FF0EE
:1059D0008043FAF72BFC02460B4650465946FAF72D
:1059E00005FF064620460F46FAF76CFD3246CDE924
:1059F00002013B4630463946CDE90067FAF7CCFD57
:105A000002460B4680468946FAF7C6FDA2A3D3E9B3
:105A1000002306460F46FAF7BFFDA1A3D3E90023F2
:105A2000FAF704FC32463B46FAF7B6FD9EA3D3E9EB
:105A30000023FAF7FBFB32463B46FAF7ADFD9CA389
:105A4000D3E90023FAF7F2FB42464B46FAF7A4FDEE
:105A500099A3D3E900238046894630463946FAF7B0
:105A60009BFD97A3D3E90023FAF7E0FB32463B46C0
:105A7000FAF792FD94A3D3E90023FAF7D7FB324655
:105A80003B46FAF789FD0B46024649464046FAF77F
:105A9000CDFBA5F5C223C5F5D725A3F27A43513531
:105AA0001D43002D06460F4640F38F800022934B86
:105AB00050465946FAF770FD52465B46FAF76CFDC0
:105AC00002460B468046894630463946FAF7AEFB19
:105AD000DDE90023FAF760FD06460F46002C40F092
