:020000040800F2
:10000000008000206D4E0008354E0008374E000875
:10001000394E00083B4E00083D4E0008000000002D
:10002000000000000000000000000000213F000868
:100030003F4E000800000000C13F000825400008B6
:10004000BD4E0008BD4E0008BD4E0008BD4E000864
:10005000BD4E0008BD4E0008BD4E0008BD4E000854
:10006000BD4E0008BD4E0008BD4E0008BD4E000844
:10007000BD4E0008BD4E0008BD4E0008BD4E000834
:10008000BD4E000800000000BD4E0008BD4E000837
:10009000BD4E0008BD4E0008BD4E0008BD4E000814
:1000A000BD4E0008BD4E0008BD4E0008BD4E000804
:1000B000BD4E0008BD4E0008BD4E0008BD4E0008F4
:1000C000BD4E0008BD4E0008BD4E0008BD4E0008E4
:1000D000BD4E0008BD4E0008BD4E0008BD4E0008D4
:1000E000BD4E0008BD4E0008BD4E0008BD4E0008C4
:1000F000BD4E0008BD4E0008BD4E000800000000C7
:1001000000000000BD4E000800000000BD4E0008C9
:10011000BD4E000800000000414E0008BD4E000822
:10012000BD4E0008BD4E0008BD4E0008BD4E000883
:10013000BD4E00080000000000000000BD4E000899
:10014000BD4E0008BD4E0008000000000000000089
:10015000000000000000000000000000000000009F
:10016000000000000000000000000000BD4E00087C
:10017000BD4E00080000000000000000000000006C
:1001800000000000BD4E000800000000000000005C
:10019000000000000000000000000000000000005F
:1001A0000000000000000000BD4E0008BD4E000829
:1001B000BD4E0008BD4E0008BD4E00080000000006
:1001C00000000000BD4E000800000000000000001C
:0801D000BD4E0008BD4E000801
:1001E00010B5054C237833B9044B13B10448AFF371
:1001F00000800123237010BD580000200000000083
:10020000304F000808B5034B1BB103490348AFF357
:10021000008008BD000000005C000020304F000896
:1002200010B5032000F070FD002004F0C7FD10B1F0
:100230000124204610BD044604F02AFDF9E7000021
:10024000034A1368034909680B441360704700BFF1
:100250008419002000000020014B1868704700BF7F
:100260008419002030B583B000230193002800F0EA
:1002700017810446C36D03B323689A6812F0005FC8
:1002800005D09A6822F0204222F03F029A6022684C
:10029000936813F0805F1DD1936823F0104323F01F
:1002A0003F0343F0805393607E4B1B689B097E4A5B
:1002B000A2FB03239B09019309E004F011FD002335
:1002C000236684F85830D7E7019B013B0193019BDB
:1002D000002BF9D123689A6812F0805F40F09E806D
:1002E000E26D42F01002E265226E42F001022266E7
:1002F00001209A6812F0040F00F092800121E26D53
:1003000012F0100F40F0C580002940F0C280E26D6D
:1003100022F4817242F00202E2659B6813F0010F41
:1003200015D14FF0A0439B6813F0010F7AD0012242
:100330005E4B9B6813F0010F76D00123134306D167
:1003400063685B498A6822F47C1213438B60627F86
:10035000E36B43EA4233E2681343A268134394F821
:10036000242043EA0243012A60D0E26A22B102F467
:100370007872216B0A4313432168CD684D4A2A40A5
:100380001343CB602268136923F04063616B0B4316
:10039000136123689A6812F0040F4CD001219A6807
:1003A00012F0080F49D0012249BB42BB217F94F8CB
:1003B0003820520042EA8131DA6822F4804222F089
:1003C00002020A43DA602369002B38D022681369DD
:1003D00043F4803313612268D2F8C03023F47F5392
:1003E00023F03F0321690B43C2F8C03094F840303A
:1003F000012B33D02268136923F001031361636971
:10040000012B3DD02268136B23F00F031363E36DC0
:1004100023F0030343F00103E3653FE0002068E7B6
:1004200000216CE7002283E7002387E7A26A013AF4
:1004300043EA424399E70021B1E70022B4E722688A
:10044000136923F4803313612268D2F8C03023F497
:100450007F5323F03F03C2F8C030C7E721680B6920
:1004600023F4FF6323F00403626CA56C2A43E56C5C
:100470002A43256D2A43134343F001030B61BEE772
:1004800021680B6B23F00F03226A013A13430B63BD
:10049000BDE7E36D43F01003E365012003B030BD19
:1004A0000120FBE754000020632D3E0500010050B1
:1004B000000300500740F0FF2DE9F0413F4B9F68DB
:1004C00007F01F078369082B3BD057B1052F08D0D1
:1004D000092F06D0394B9B6813F4604F2BD10426AB
:1004E00005E00368DB6813F0010F1DD104260D46FB
:1004F0000446FFF7B1FE804623681A68324222D1D3
:10050000B5F1FF3FF8D0FFF7A7FEA0EB0800A84227
:1005100001D8002DF0D1E36D43F00403E36500231F
:1005200084F85830032004E0C36D43F02003C36512
:100530000120BDE8F081C36D43F02003C3650120B5
:10054000F7E70826D3E7E26D42F40072E265DA6865
:1005500012F4406F11D1627F7AB91A6812F0080F55
:100560000BD0E26D22F48072E265E26D12F4805FDE
:1005700003D1E26D42F00102E265114A934209D0D3
:100580001A46934209D047B1052F06D0092F04D04F
:10059000D26803E04FF0A042F3E7DA68082E06D0F5
:1005A00012F4804F07D10C221A600020C1E7082204
:1005B0001A600020BDE70020BBE700BF0003005029
:1005C000000100500368186C70470000F0B482B05E
:1005D0000022019290F85820012A00F0368203464A
:1005E000012280F858200668B06810F0040F0AD085
:1005F000DA6D42F02002DA650120002283F85820EB
:1006000002B0F0BC70474D680C6830362A0A920080
:1006100002F00C02B05805F01F051F27AF4020EA7A
:100620000700C4F38464AC402043B0501A6890685B
:1006300010F0040F00F08F800120946814F0080F70
:1006400000F08B80012500284ED1002D4CD18C6804
:10065000B4F1004F00F083800F681432780E8000F0
:1006600000F004001658C7F304574FF0070C0CFABB
:1006700007FC26EA0C06BC40344314501868426953
:1006800022F0004242614A691C68E068C0F3C10080
:10069000400002FA00F00E69042E78D0603454F85D
:1006A0002670BD4A3A400F6807F0F84738430243C6
:1006B00042F0004244F826201A680E6988696032C8
:1006C00052F8264024F08074204342F8260018682F
:1006D0000C690A7F012A57D0603050F8242022F09C
:1006E00000722A4340F824201868826812F0010F33
:1006F00016D10A68CD68D0F8B040C2F3120624EAD9
:10070000060405F01806A54DF5402A40C2F3120272
:100710002243C0F8B020C868A14A904200F09380FC
:100720000A68A0490A4200F088819F49896801F05F
:10073000E0709E4CA24200F024819D4CA24200F049
:1007400020819C4CA24200F055819B4CA24200F0BB
:100750006381002051E700206FE7002573E70C68F4
:100760001432600E800000F004001658C4F30454E4
:10077000072707FA04F426EA0404145018684269AB
:1007800042F0004242617EE74FF00075A4E7226E1E
:10079000206EC0F384600A68C2F3120585BBC2F301
:1007A0008462904231D01C68626E606EC0F38460D7
:1007B0000A68C2F312056DBBC2F3846290422ED068
:1007C0001C68A26EA06EC0F384600A68C2F31205B2
:1007D00055BBC2F3846290422BD01C68E26EE06E7F
:1007E000C0F384600A68C2F312053DBBC2F38462A1
:1007F00090427FF479AFE26E22F00042E26673E746
:1008000092FAA2F2B2FA82F2CBE7226E22F0004212
:100810002266C8E792FAA2F2B2FA82F2CEE7626EDC
:1008200022F000426266CBE792FAA2F2B2FA82F2BA
:10083000D1E7A26E22F00042A266CEE792FAA2F2BF
:10084000B2FA82F2D4E71D680A68C2F3120696BBB8
:10085000900E013000F01F0009288CBF00200120FD
:10086000002852D09EBB940E0134A40604F0F84434
:10087000B6BB900E013000F01F070120B8400443C2
:10088000C6BB920E013202F01F0202EB42021205B9
:1008900022438C681435500E800000F004002E585E
:1008A000C2F304520727974026EA070604FA02F229
:1008B00032432A5034E792FAA2F0B0FA80F00130C5
:1008C00000F01F0009288CBF00200120C8E792FA21
:1008D000A2F4B4FA84F40134A40604F0F844C7E79F
:1008E00092FAA2F0B0FA80F0013000F01F07012068
:1008F000B840C4E792FAA2F2B2FA82F2013202F0F0
:100900001F0202EB42021205C2E7CEB9940E013477
:10091000A40604F0F844E6B9900E013000F01F0779
:100920000120B8400443F6B9900E013000F01F00DA
:1009300000EB40021E3A120542F000722243A8E783
:1009400092FAA2F4B4FA84F40134A40604F0F84450
:10095000E1E792FAA2F0B0FA80F0013000F01F0750
:100960000120B840DEE792FAA2F0B0FA80F0013040
:1009700000F01F0000EB40021E3A120542F0007228
:10098000DCE711F4000F7FF4DCAE1A68B2F1A04F7F
:1009900014D0002031E600BF00F0FF03FFFF070086
:1009A00000007F400000088000030050000021C3C9
:1009B0001000C090000052C7000084CB40F400003B
:1009C00023498A6822F0E07210438860214A126845
:1009D00092092149A1FB0212920902EB4202910005
:1009E000019102E0019A013A0192019A002AF9D19B
:1009F000002002E611F0807F7FF4A7AE1968174A45
:100A000091421CD040F0807011498A6822F0E07257
:100A1000104388600020F0E511F4800F11D11968AF
:100A20000E4A91420FD040F480020948816821F0BB
:100A3000E0710A4382600020DFE50020DDE5002050
:100A4000DBE50020D9E50020D7E50220D8E500BF8E
:100A50000003005054000020632D3E0500010050AB
:100A600038B503689A6812F0010F3DD199681F4AA2
:100A7000114209D0C36D43F01003C365036E43F008
:100A800001030366012030E004469A6822F0004228
:100A900022F03F0242F001029A60FFF7DDFB0546BB
:100AA00004E0FFF7D9FB401B022811D823681A681D
:100AB00012F0010F16D19A6812F0010FF1D19A6865
:100AC00022F0004222F03F0242F001029A60E8E781
:100AD000E36D43F01003E365236E43F001032366E7
:100AE000012002E0002000E0002038BD3F0000802F
:100AF00038B53B4B9D6803689B6813F0040F6AD1BF
:100B000005F01F0590F85830012B67D004460123EB
:100B100080F85830FFF7A4FF0346002857D1E26D54
:100B200022F4706222F0010242F48072E2652268CF
:100B30002C498A422FD011468A4200D01DB9E16D5E
:100B400021F48011E165E16D11F4805F26D0216E02
:100B500021F0060121661C211160002284F8582032
:100B60002168204A91421CD00A4691421CD0DDB136
:100B7000052D19D0092D17D0E16D41F48011E165E3
:100B8000D26812F0007F27D0E26D22F4405242F486
:100B90008052E26520E04FF0A041CDE700212166C0
:100BA000D9E74FF0A042E0E7CA6812F0007F05D015
:100BB000E26D22F4405242F48052E2658A6822F0EB
:100BC000004222F03F0242F004028A6004E0002268
:100BD00084F8582000E00223184638BD0223FBE7C2
:100BE000000300500001005090F85820012A00F046
:100BF000848030B49CB00346012280F858200268FB
:100C0000B2F1A04F39D0002001900198002837D0D0
:100C1000806810F0040F3CD00120926812F0040F9D
:100C20005CD100285AD10A68002A38D0344CA26816
:100C300022F46042486893F8385040EA4530024355
:100C4000A2604FF0A042926812F0010F23D001225F
:100C50002C48806810F0010F1FD00120024348D1BA
:100C6000274CA26822F4716222F00F02086889689A
:100C700001430A43A260002035E022480190C4E706
:100C8000DA6D42F02002DA65002283F85820012054
:100C90002CE00020C1E70022DAE70020DEE7184858
:100CA000816821F4604181604FF0A041896811F0B2
:100CB000010F11D001211348806810F0010F00D0FE
:100CC00001220A4317D10E498A6822F4716222F088
:100CD0000F028A60002006E01146ECE7DA6D42F070
:100CE0002002DA650120002283F858201CB030BCB5
:100CF00070470020F7E70020F5E70220704700BFAB
:100D00000003005000010050074AD36823F4E06359
:100D10001B041B0C000200F4E060184340F0BF60AD
:100D200040F40030D060704700ED00E030B4174B65
:100D3000DB68C3F30223C3F10704042C28BF042497
:100D40001D1D062D18D9033B4FF0FF3505FA04F49D
:100D500021EA0401994005FA03F322EA0303194347
:100D600000280BDB0901C9B200F1604000F56140C9
:100D700080F8001330BC70470023E5E700F00F0057
:100D80000901C9B2024B1954F4E700BF00ED00E0BD
:100D900014ED00E0002807DB00F01F0240090123EA
:100DA0009340024A42F82030704700BF00E100E063
:100DB000F0B583B0002336E0052400E00024B44001
:100DC0003C4302355E4E46F825405E4C2568D443D0
:100DD00004EA05064F6817F4803F01D042EA050691
:100DE000584D2E606D6804EA05064F6817F4003F01
:100DF00001D042EA0506534D6E60AD6804EA05066F
:100E00004F6817F4801F01D042EA05064D4DAE60D1
:100E1000ED682C404E6816F4001F01D042EA05042C
:100E2000484AD46001330A6832FA03F400F086803D
:100E300001249C402240F5D04D686E1E012E03D93E
:100E4000112D01D0122D12D186685F000325BD40FF
:100E500026EA0506CD68BD4035438560466826EA2A
:100E600004064D68C5F300149C4034434460C568D3
:100E70005F000324BC40E44325408E68BE402E43FF
:100E8000C6604D68022D01D0122D13D1DE08083640
:100E900050F826E003F007054FEA850C0F2505FA08
:100EA0000CF52EEA050E0D6905FA0CF545EA0E055E
:100EB00040F8265005682C404D6805F00305BD40FC
:100EC0002C4304604C6814F0805FABD01E4C256E40
:100ED00045F001052566246E04F001040194019C8F
:100EE0009D08AE1C164C54F8267003F00304A600AF
:100EF0000F24B44027EA0407B0F1904F3FF45EAFEF
:100F0000124CA04212D004F58064A04210D004F527
:100F10008064A0420ED004F58064A0420CD004F599
:100F20008064A0423FF448AF062448E7012446E726
:100F3000022444E7032442E7042440E703B0F0BD61
:100F4000000001400004014000100240000400487D
:100F50000369194201D100207047012070470AB986
:100F60008162704781617047002838D13E4B1B6811
:100F700003F4C063B3F5806F08D03B4AD2F88030E9
:100F800023F48073C2F8803000207047364AD2F8CC
:100F9000803023F48073C2F88030136823F4C06378
:100FA00043F400731360314B1A68322303FB02F3DE
:100FB0002F4AA2FB03239B0C013300E0013B2A4A8A
:100FC000526912F4806F01D0002BF7D1264B5B6978
:100FD00013F4806F01D10020704703207047B0F5F3
:100FE000007F08D0204A136823F4C06343F4806371
:100FF0001360002070471C4B1B6803F4C063B3F5FB
:10100000806F08D0184AD2F8803043F48073C2F859
:10101000803000207047144AD2F8803043F4807347
:10102000C2F88030136823F4C06343F40073136084
:101030000E4B1A68322303FB02F30D4AA2FB032373
:101040009B0C013300E0013B074A526912F4806FA8
:1010500001D0002BF7D1044B5B6913F4806F01D1F1
:1010600000207047032070470070004054000020AB
:1010700083DE1B43124AD36803F00303D068C0F336
:1010800003100130032B11D00E4BB3FBF0F30C4ACD
:10109000D068C0F3062000FB03F0094BDB68C3F304
:1010A000416301335B00B0FBF3F07047064BB3FBC9
:1010B000F0F3D068C0F3062000FB03F0EDE700BFBB
:1010C000001002400024F40000127A00002800F012
:1010D0005E8270B582B00446036813F0010F37D00A
:1010E000B44A936803F00C03D26802F003020C2B9D
:1010F00023D0082B23D06368B3F5803F4ED0B3F5DF
:10110000A02F51D0AB4B1A6822F480321A601A68B3
:1011100022F480221A606368002B52D0FFF79CF8FB
:101120000546A44B1B6813F4003F11D1FFF794F858
:10113000401B6428F5D9032032E2032AD9D19D4B04
:101140001B6813F4003F03D06368002B00F021827A
:10115000236813F0020F5DD0964A936803F00C03E6
:10116000D26802F003020C2B3AD0042B3AD0E36889
:10117000002B75D08F4A136843F480731360FFF718
:101180006BF805468B4B1B6813F4806F5FD1FFF73C
:1011900063F8401B0228F5D9032001E2854A136851
:1011A00043F480331360B6E703F18043A3F53C3387
:1011B0001A6842F480221A601A6842F480321A6077
:1011C000A9E7FFF749F805467A4B1B6813F4003F7F
:1011D000BED0FFF741F8401B6428F5D90320DFE1BA
:1011E000022AC2D1734B1B6813F4806F03D0E368EB
:1011F000002B00F0D0816F4A536823F0FE43216931
:1012000043EA016353606C4B186803F0D7FD002874
:1012100040F0C381236813F0080F4CD063699BB37F
:10122000644AD2F8943043F00103C2F89430FFF7D7
:1012300013F805465F4BD3F8943013F0020F3AD100
:10124000FFF70AF8401B0228F4D90320A8E1594A05
:10125000536823F0FE43216943EA01635360D9E7F1
:10126000544A136823F480731360FEF7F5FF0546B4
:10127000504B1B6813F4806FCCD0FEF7EDFF401B82
:101280000228F5D903208BE14A4AD2F8943023F0A2
:101290000103C2F89430FEF7DFFF0546454BD3F853
:1012A000943013F0020F06D0FEF7D6FF401B022841
:1012B000F4D9032074E1236813F0040F00F0818057
:1012C0003C4B9B6D13F0805F36D13A4B9A6D42F0E8
:1012D00080529A659B6D03F080530193019B012519
:1012E000364B1B6813F4807F28D0A368012B39D0BC
:1012F000052B3FD02F4BD3F8902022F00102C3F8EA
:101300009020D3F8902022F00402C3F89020A36824
:10131000002B3DD0FEF7A0FF0646264BD3F89030B9
:1013200013F0020F4CD1FEF797FF801B41F2883378
:101330009842F2D9032033E10025D1E71F4A136810
:1013400043F480731360FEF787FF06461B4B1B6850
:1013500013F4807FC9D1FEF77FFF801B0228F5D9E7
:1013600003201DE1134AD2F8903043F00103C2F884
:101370009030CCE70F4BD3F8902042F00402C3F832
:101380009020D3F8902042F00102C3F89020BEE7ED
:10139000FEF762FF0646074BD3F8903013F0020FBA
:1013A0000ED0FEF759FF801B41F288339842F2D9E4
:1013B0000320F5E00010024004000020007000400F
:1013C000E5B9236813F0200F35D0A369E3B1774A5C
:1013D000D2F8983043F00103C2F89830FEF73CFF92
:1013E0000546724BD3F8983013F0020F23D1FEF765
:1013F00033FF401B0228F4D90320D1E06B4A936DE0
:1014000023F080539365DCE7684AD2F8983023F0E4
:101410000103C2F89830FEF71FFF0546634BD3F86F
:10142000983013F0020F06D0FEF716FF401B02287B
:10143000F4D90320B4E0E369002B00F0B0805B4AEC
:10144000926802F00C020C2A69D0022B1DD0574B77
:101450001A6822F080721A60DA6822F00302DA60F9
:10146000DA6822F0887222F48032DA60FEF7F4FE45
:1014700004464E4B1B6813F0007F4ED0FEF7ECFE87
:10148000001B0228F5D903208AE0484A136823F09C
:1014900080731360FEF7E0FE0546444B1B6813F0B3
:1014A000007F06D0FEF7D8FE401B0228F5D90320A6
:1014B00076E03E4AD3683E491940236A606A0138A3
:1014C00043EA0013A06A43EA0023206B4008013876
:1014D00043EA4053606B4008013843EA4063E06AE6
:1014E00043EAC0630B43D360136843F08073136017
:1014F000D36843F08073D360FEF7AEFE04462B4BF7
:101500001B6813F0007F06D1FEF7A6FE001B022821
:10151000F5D9032044E0002042E0002040E0012B08
:1015200040D0224BDB6803F00301226A914201D0D4
:10153000012035E003F0F002616A0139B2EB011FCE
:1015400001D001202CE003F4FE42A16AB2EB012F8E
:1015500001D0012024E003F07842E16AB2EBC16FD0
:1015600001D001201CE003F4C001226B5208013AB3
:10157000B1EB425F01D0012012E003F0C063626B67
:101580005208013AB3EB426F0ED0012008E001206F
:101590007047012004E0012002E0012000E000206B
:1015A00002B070BD0120FBE70020F9E70010024007
:1015B0000C809F011E4B9B6803F00C03042B33D05F
:1015C0001B4B9B6803F00C03082B2FD0184B9B6818
:1015D00003F00C030C2B01D000207047144BDA6889
:1015E00002F00302DB68C3F303130133032A11D1B2
:1015F0001048B0FBF3F30E4AD068C0F3062000FB9E
:1016000003F00B4BDB68C3F3416301335B00B0FBBA
:10161000F3F070470848B0FBF3F3054AD068C0F315
:10162000062000FB03F0ECE70348704701487047D1
:101630000010024000127A000024F400002800F09C
:10164000EA80F8B50446764B1B6803F00F038B4223
:101650000CD2734A136823F00F030B431360136813
:1016600003F00F038B4201D00120B3E00D46236845
:1016700013F0010F61D06368032B15D0022B33D018
:10168000684B1B6813F4806F00F0C780FFF792FF70
:10169000654B984235D9634A936823F0F00343F0D1
:1016A0008003936080272DE05E4B1B6813F0007F62
:1016B00001D101208EE0FFF7DDFC5B4B98421AD987
:1016C000584B9B6813F0F00F05D0236813F0020FFE
:1016D00013D0A3689BB9534A936823F0F00343F0F7
:1016E0008003936080270DE04E4B1B6813F4003F8E
:1016F000CCD101206EE0002704E0002702E00027A3
:1017000000E00027474A936823F0030361680B4316
:101710009360FEF7A1FD0646424B9B6803F00C0365
:101720006268B3EB820F09D0FEF796FD801B41F291
:1017300088339842F0D903204CE00027236813F047
:10174000020F48D013F0040F04D0364A936843F4D4
:10175000E0639360236813F0080F06D0314A936862
:1017600023F47C5343F4E06393602E4A936823F0A0
:10177000F003A1680B439360294B1B6803F00F0330
:10178000AB4230D8236813F0040F06D0254A936883
:1017900023F4E063E1680B439360236813F0080FC0
:1017A00007D0204A936823F46053216943EAC103B8
:1017B0009360FFF7FFFE1B4B9B68C3F303131B4AA9
:1017C000D35C03F01F03D840194B1860194B1868FD
:1017D00003F0F4FAF8BD002FCED0124A936823F03C
:1017E000F0039360C8E70E4A136823F00F032B43FE
:1017F0001360FEF731FD0646094B1B6803F00F032B
:10180000AB42BFD0FEF728FD801B41F288339842DF
:10181000F2D90320DEE7012070470120DAE700BF9C
:10182000002002400010024000B4C404C84F000869
:101830005400002004000020014B1868704700BFCE
:101840005400002008B5FFF7F7FF054B9B68C3F372
:101850000223044AD35C03F01F03D84008BD00BF35
:1018600000100240D84F00080F2303600B4B9A680A
:1018700002F0030242609A6802F0F00282609A6805
:1018800002F4E062C2609B68DB0803F4E06303617A
:10189000034B1B6803F00F030B60704700100240FE
:1018A00000200240F0B583B00446036813F4002F13
:1018B00069D0B34B9B6D13F0805F1ED1B04B9A6D16
:1018C00042F080529A659B6D03F080530193019B17
:1018D0000126AC4A136843F480731360FEF7BCFC26
:1018E0000546A84B1B6813F4807F08D1FEF7B4FCB3
:1018F000401B0228F5D9032502E00026E9E7002570
:1019000045BB9F4BD3F8903013F4407315D0226C35
:101910009A4212D09A4AD2F8903023F44073D2F807
:10192000901041F48031C2F89010D2F8901021F458
:101930008031C2F89010C2F8903013F0010F10D12E
:1019400045B98F4AD2F8903023F44073216C0B4391
:10195000C2F89030C6B18A4A936D23F080539365E4
:1019600012E0FEF779FC0746854BD3F8903013F070
:10197000020FE5D1FEF770FCC01B41F2883398429C
:10198000F2D90325DCE70025236813F0010F08D006
:101990007B4AD2F8883023F0030361680B43C2F816
:1019A0008830236813F0020F08D0754AD2F88830C7
:1019B00023F00C03A1680B43C2F88830236813F0AE
:1019C000040F08D06E4AD2F8883023F03003E16863
:1019D0000B43C2F88830236813F0080F08D0684A18
:1019E000D2F8883023F0C00321690B43C2F8883055
:1019F000236813F0200F08D0614AD2F8883023F40E
:101A0000406361690B43C2F88830236813F0400FCC
:101A100008D05B4AD2F8883023F44053A1690B43C5
:101A2000C2F88830236813F0800F08D0544AD2F8E7
:101A3000883023F44043E1690B43C2F888302368BF
:101A400013F4807F08D04E4AD2F8883023F4403314
:101A5000216A0B43C2F88830236813F4007F08D052
:101A6000474AD2F8883023F44023616A0B43C2F816
:101A70008830236813F4806F0CD0414AD2F8883044
:101A800023F44013A16A0B43C2F88830A36AB3F56C
:101A9000801F57D0236813F4006F0CD0384AD2F857
:101AA000883023F44003E16A0B43C2F88830E36ACC
:101AB000B3F5800F4BD0236813F4805F0CD0304A0D
:101AC000D2F8883023F04073216B0B43C2F8883082
:101AD000236BB3F1807F3FD0236813F4005F0CD0F9
:101AE000274AD2F8883023F04063616B0B43C2F879
:101AF0008830636BB3F1006F33D0236813F4804FE9
:101B00000CD01F4AD2F8883023F04063A16B0B43FE
:101B1000C2F88830A36BB3F1006F27D0236813F4A9
:101B2000004F0CD0164AD2F8883023F04053E16BB6
:101B30000B43C2F88830E36BB3F1805F1BD02846BB
:101B400003B0F0BDD36843F48013D360A2E7D36839
:101B500043F48013D360AEE7D36843F48013D360BB
:101B6000BAE7D36843F48013D360C6E7D36843F47D
:101B70008013D360D2E7D36843F48033D360DEE7C9
:101B8000001002400070004030B4036A23F00103EB
:101B90000362036A4468826922F4803222F073028D
:101BA0000D682A4323F002038D682B431C4DA84285
:101BB0000FD005F50065A8420BD005F54065A84299
:101BC00007D005F58065A84203D005F58065A842D9
:101BD00005D123F00803CD682B4323F00403104DF7
:101BE000A8420FD005F50065A8420BD005F5406569
:101BF000A84207D005F58065A84203D005F58065A9
:101C0000A84205D124F440754C692C438D692C43BE
:101C1000446082614A684263036230BC704700BF1F
:101C2000002C014030B4036A23F480730362036A1A
:101C30004468C26922F4803222F073020D682A439C
:101C400023F400738D6843EA0523184DA84203D09E
:101C500005F50065A84206D123F40063CD6843EA88
:101C6000052323F48063114DA8420FD005F50065CC
:101C7000A8420BD005F54065A84207D005F5806560
:101C8000A84203D005F58065A84207D124F440544A
:101C90004D6944EA05148D6944EA05144460C26143
:101CA0004A68C263036230BC704700BF002C014029
:101CB00030B4036A23F480530362036A4468C26940
:101CC00022F0807222F4E6420D6842EA052223F4F3
:101CD00000538D6843EA0533174DA84203D005F53C
:101CE0000065A84206D123F40043CD6843EA0533DA
:101CF00023F48043104DA8420FD005F50065A8429B
:101D00000BD005F54065A84207D005F58065A842CF
:101D100003D005F58065A84207D124F440444D69FD
:101D200044EA85148D6944EA85144460C2614A68B6
:101D30000264036230BC7047002C014030B4036A77
:101D400023F480330362036A4468026D22F4803214
:101D500022F070020D682A4323F400338D6843EAB1
:101D600005430F4DA8420FD005F50065A8420BD0E2
:101D700005F54065A84207D005F58065A84203D067
:101D800005F58065A84204D124F480344D6944EA05
:101D90000524446002654A688264036230BC70476F
:101DA000002C014030B4036A23F480130362036AF9
:101DB0004468026D22F0807222F4E0420D6842EA2B
:101DC000052223F400138D6843EA05530F4DA84202
:101DD0000FD005F50065A8420BD005F54065A84277
:101DE00007D005F58065A84203D005F58065A842B7
:101DF00004D124F480244D6944EA852444600265BA
:101E00004A68C264036230BC704700BF002C0140C6
:101E100010B4036A046A24F001040462846924F0A3
:101E2000F00444EA021223F00A030B4382610362C6
:101E30005DF8044B704710B4036A23F0100303628B
:101E40008469036A24F4704444EA023223F0A00354
:101E500043EA0113826103625DF8044B70478368B3
:101E600023F4401323F07003194341F0070181600C
:101E70007047000090F83D30DBB2012B01D001200B
:101E80007047022380F83D300268D36843F00103B5
:101E9000D36002689168084B0B40062B08D0B3F55D
:101EA000803F07D0136843F00103136000207047A0
:101EB00000207047002070470700010070477047FE
:101EC00070477047704710B5044603681A6912F0EE
:101ED000020F12D0DA6812F0020F0ED06FF0020279
:101EE0001A610123037703689B6913F0030F00F065
:101EF0009F80FFF7E5FF0023237723681A6912F01C
:101F0000040F13D0DA6812F0040F0FD06FF0040240
:101F10001A610223237723689B6913F4407F00F042
:101F20008D802046FFF7CCFF0023237723681A69B2
:101F300012F0080F12D0DA6812F0080F0ED06FF00E
:101F400008021A61042323772368DB6913F0030F67
:101F50007BD02046FFF7B4FF0023237723681A695C
:101F600012F0100F12D0DA6812F0100F0ED06FF0CE
:101F700010021A61082323772368DB6913F4407F7A
:101F80006AD02046FFF79CFF0023237723681A6955
:101F900012F0010F03D0DA6812F0010F63D1236849
:101FA0001A6912F0800F03D0DA6812F0800F61D145
:101FB00023681A6912F4807F03D0DA6812F0800F68
:101FC0005FD123681A6912F0400F03D0DA6812F06B
:101FD000400F5DD123681A6912F0200F03D0DA6830
:101FE00012F0200F5BD123681A6912F4801F03D00E
:101FF000DA6812F4801F59D123681A6912F4001F9D
:1020000003D0DA6812F4001F57D123681A6912F45A
:10201000800F03D0DA6812F4800F55D123681A6953
:1020200012F4000F03D0DA6812F4000F53D110BD80
:10203000FFF745FF2046FFF744FF5CE72046FFF728
:102040003EFF2046FFF73DFF6EE72046FFF737FFD4
:102050002046FFF736FF7FE72046FFF730FF204698
:10206000FFF72FFF90E76FF001021A61204602F0A0
:1020700003FE94E76FF080021A61204600F0A5FB92
:1020800096E76FF480721A61204600F09FFB98E794
:102090006FF040021A612046FFF714FF9AE76FF0D5
:1020A00020021A61204600F08FFB9CE76FF480123B
:1020B0001A61204600F08BFB9EE76FF400121A6154
:1020C000204600F085FBA0E76FF480021A612046ED
:1020D00000F07FFBA2E76FF400021A61204600F0D7
:1020E00079FBA4E703682C4A90420ED0B0F1804FF0
:1020F0000BD0A2F59432904207D002F58062904254
:1021000003D002F59632904203D123F070034A685F
:102110001343214A90421AD0B0F1804F17D0A2F554
:102120009432904213D002F5806290420FD002F5B3
:10213000963290420BD002F54062904207D002F5F1
:102140008062904203D002F58062904203D123F472
:102150004073CA68134323F080034A691343036042
:102160008B68C3620B6883620B4B98420FD003F5F8
:10217000006398420BD003F54063984207D003F503
:102180008063984203D003F58063984201D10B69C4
:102190000363012343617047002C014058B310B51D
:1021A000044690F83D300BB3022384F83D30211DE6
:1021B0002068FFF797FF012384F8483084F83E3009
:1021C00084F83F3084F8403084F8413084F842305D
:1021D00084F8433084F8443084F8453084F846303D
:1021E00084F8473084F83D30002010BD80F83C3042
:1021F00002F0A6FDD8E70120704758B310B5044699
:1022000090F83D300BB3022384F83D30211D206847
:10221000FFF768FF012384F8483084F83E3084F8E3
:102220003F3084F8403084F8413084F8423084F8FC
:10223000433084F8443084F8453084F8463084F8DC
:10224000473084F83D30002010BD80F83C30FFF767
:1022500035FED8E70120704730B4036A23F010033D
:102260000362036A4468826922F0807222F4E642C3
:102270000D6842EA052223F020038D6843EA051326
:10228000174DA84203D005F50065A84206D123F0FA
:102290008003CD6843EA051323F04003104DA842A4
:1022A0000FD005F50065A8420BD005F54065A842A2
:1022B00007D005F58065A84203D005F58065A842E2
:1022C00007D124F440644D6944EA85048D6944EAE9
:1022D0008504446082614A688263036230BC70474F
:1022E000002C014038B590F83C30012B00F08C8078
:1022F0000D460446012380F83C30142A1ED8DFE83E
:1023000002F00B1D1D1D211D1D1D351D1D1D481D10
:102310001D1D5C1D1D1D6F000068FFF735FC226848
:10232000936943F0080393612268936923F00403DF
:1023300093612268936929690B439361002084F8B3
:102340003C0038BD0068FFF787FF2268936943F4BB
:10235000006393612268936923F480639361226828
:102360009369296943EA01239361E7E70068FFF76E
:1023700059FC2268D36943F00803D3612268D3690A
:1023800023F00403D3612268D36929690B43D36125
:10239000D4E70068FFF78CFC2268D36943F400633C
:1023A000D3612268D36923F48063D3612268D3693F
:1023B000296943EA0123D361C0E70068FFF7BEFC47
:1023C0002268136D43F0080313652268136D23F030
:1023D000040313652268136D29690B431365ADE788
:1023E0000068FFF7DFFC2268136D43F40063136598
:1023F0002268136D23F4806313652268136D2969C5
:1024000043EA0123136599E702209AE710B4846830
:1024100024F47F4442EA03230B43234383605DF8A3
:10242000044B704790F83C30012B77D010B5044630
:10243000012380F83C30022380F83D300268906828
:10244000374B034093600B68702B41D01DD8302B65
:1024500016D00FD9502B4DD0602B55D0402B42D1E8
:10246000CA6849682068FFF7D3FC40212068FFF75D
:10247000F6FC38E0102B03D0202B01D0002B32D1FA
:1024800019462068FFF7EBFC2DE0264A9342F7D06F
:1024900014D8B3F1101FF3D0103A9342F0D0B3F533
:1024A000005F20D1CB684A6889682068FFF7AEFFDB
:1024B0002268936843F48043936014E01A4A93427D
:1024C000DED010329342DBD0303A93420BD1D7E7C3
:1024D000CB684A6889682068FFF798FF226893688C
:1024E00043F077039360012384F83D30002084F8A3
:1024F0003C0010BDCA6849682068FFF789FC50217C
:102500002068FFF7ACFCEEE7CA6849682068FFF76F
:1025100092FC60212068FFF7A2FCE4E702207047EC
:102520008800CEFF300010006000100010B401F0F1
:102530001F01012303FA01F4036A23EA040303627F
:10254000036A8A40134303625DF8044B704700003E
:102550000A4600293BD190F83E30DBB213F1FF333D
:1025600018BF0123002B7ED110B5002A5FD10223B2
:1025700080F83E301146044601220068FFF7D6FF7E
:1025800023683C4A93420FD002F5006293420BD07D
:1025900002F54062934207D002F58062934203D075
:1025A00002F58062934203D15A6C42F400425A64AD
:1025B00022689168304B0B40062B56D0B3F5803F14
:1025C00055D0136843F001031360002010BD0429A7
:1025D0000DD0082913D00C2919D010291FD090F83C
:1025E0004330DBB213F1FF3318BF0123BAE790F891
:1025F0003F30DBB213F1FF3318BF0123B2E790F88D
:102600004030DBB213F1FF3318BF0123AAE790F883
:102610004130DBB213F1FF3318BF0123A2E790F87A
:102620004230DBB213F1FF3318BF01239AE7042ACB
:1026300009D0082A0BD00C2A0DD0102A0FD0022363
:1026400080F8433096E7022380F83F3092E7022378
:1026500080F840308EE7022380F841308AE7022379
:1026600080F8423086E7012070470020AEE7002066
:10267000ACE700BF002C01400700010038B504465C
:102680000D4600220068FFF751FF2368284A934255
:102690000FD002F5006293420BD002F540629342E4
:1026A00007D002F58062934203D002F58062934224
:1026B0000DD1196A41F21112114208D1196A44F27E
:1026C0004442114203D15A6C22F400425A642368F6
:1026D000196A41F21112114208D1196A44F24442B6
:1026E000114203D11A6822F001021A605DB1042D73
:1026F0000ED0082D10D00C2D12D0102D14D0012387
:1027000084F8433002E0012384F83E30002038BDD5
:10271000012384F83F30F9E7012384F84030F5E7DE
:10272000012384F84130F1E7012384F84230EDE7DA
:10273000002C014090F83C30012B40D030B40123F4
:1027400080F83C30022380F83D3002685368956879
:102750001C4CA24203D004F50064A24203D123F42E
:1027600070034C68234323F0007323F070030C685C
:10277000234353600368134A934212D0B3F1804F4E
:102780000FD0A2F5943293420BD002F580629342AF
:1027900007D002F59632934203D002F5406293428D
:1027A00004D125F080058A6815439D60012380F8D7
:1027B0003D30002380F83C30184630BC7047022082
:1027C000704700BF002C014070477047704770474A
:1027D0007047704770470000EFF305838BB9EFF344
:1027E000108313B9EFF311831BB10A4B1B68022B43
:1027F0000AD0084B1B6853B9064B01221A6000200F
:1028000070476FF0050070476FF0050070474FF09C
:10281000FF3070477400002008B5EFF30583A3B9BB
:10282000EFF3108313B9EFF311831BB10B4B1B684C
:10283000022B0DD0094B1B68012B0CD1074B022238
:102840001A6000F001FE002008BD6FF00500FBE7F4
:102850006FF00500F8E74FF0FF30F5E77400002057
:10286000F0B587B000240594EFF3058444BBEFF383
:10287000108313B9EFF311831BB12D4B1B68022B8F
:102880001ED0E8B14AB31668946904B91824631ECF
:10289000372B49D8536813F0010F47D1556995B1CB
:1028A0004FEA950C93682BB1D7685B2F02D9176953
:1028B00007B1C5B953B14FF0FF35012D1AD02DB373
:1028C000059807B0F0BD4FF0800CEBE7D36863B913
:1028D00013696BB14FF0FF35EFE7002518244FF077
:1028E000800C2E46E9E70125E7E74FF0FF35E4E7E6
:1028F0000025E2E7136992680292019300940B4667
:102900006246314600F032FD0590D9E705AA0192F2
:1029100000940B461FFA8CF2314600F061FD01284D
:10292000CED000230593CBE70020CAE70020C8E7FC
:102930007400002010B4054B1C1D046060330B6054
:10294000802313605DF8044B704700BF74000020C3
:1029500010B4064B03F51874046003F52F730B6075
:102960004FF4807313605DF8044B704774000020CF
:1029700000F1080343604FF0FF328260C3600361DF
:1029800000230360704700230361704743684B6076
:102990009A688A609A685160996008610368013397
:1029A0000360704730B40D68B5F1FF3F02D000F10D
:1029B000080202E0026904E01A4653681C68AC424F
:1029C000FAD953684B6099608A6051600861036866
:1029D0000133036030BC70470369426881689160CD
:1029E0008268416851605A68824206D000220261C2
:1029F0001A68013A1A601868704782685A60F5E7E9
:102A000010B5044601F09EFAA26BE36B9A4204D023
:102A1000002401F0B9FA204610BD0124F9E710B5F1
:102A2000044601F08FFAA36B23B1002401F0ACFA45
:102A3000204610BD0124F9E770B504461646856BA3
:102A4000026C5AB903681BB100200135A56370BD43
:102A5000806800F09BFF0023A360F6E76EB9406832
:102A600002F052FA226C636813446360A2689342D6
:102A700019D3236863600020E7E7C06802F044FAD6
:102A8000226C5242E3681344E36021688B4202D215
:102A9000A3681A44E260022E01D00020D5E725B1D8
:102AA000013D0020D1E70020CFE70020CDE7026CF8
:102AB00072B110B5C3681344C3608468A34201D3E4
:102AC0000368C3600C46C168204602F01DFA10BDC1
:102AD000704738B5054601F035FA95F8454064B2BF
:102AE00003E000F03BFF013C64B2002C08DD6B6AA0
:102AF00033B105F1240000F0A3FE0028F3D0F0E785
:102B0000FF2385F8453001F03FFA01F01BFA95F8F4
:102B1000444064B203E000F021FF013C64B2002CA9
:102B200008DD2B6933B105F1100000F089FE0028A3
:102B3000F3D0F0E7FF2385F8443001F025FA38BDE3
:102B400038B540B94FF0500383F31188BFF36F8F4E
:102B5000BFF34F8FFEE704460D4601F0F3F92168FD
:102B6000E26B236C03FB0210A0600020A063616095
:102B7000013A02FB0313E360FF2384F8443084F836
:102B80004530A5B923691BB901F0FEF9012038BD14
:102B900004F1100000F054FE0028F5D0084B4FF06F
:102BA00080521A60BFF34F8FBFF36F8FECE704F1D1
:102BB0001000FFF7DDFE04F12400FFF7D9FEE3E784
:102BC00004ED00E038B51D46049C0B4649B1226077
:102BD000E063236401212046FFF7B2FF84F84C50E4
:102BE00038BD2460F4E740B94FF0500383F31188F7
:102BF000BFF36F8FBFF34F8FFEE710B584B004466D
:102C000053B192B189B94FF0500383F31188BFF3E8
:102C10006F8FBFF34F8FFEE74FF0500383F31188A0
:102C2000BFF36F8FBFF34F8FFEE74AB941B14FF04B
:102C3000500383F31188BFF36F8FBFF34F8FFEE70D
:102C4000502003900398502808D04FF0500383F38E
:102C50001188BFF36F8FBFF34F8FFEE720461C46EE
:102C6000039B012384F8463000949DF81830FFF749
:102C7000A9FF204604B010BDF0B585B0019260B147
:102C8000044699B9026C8AB14FF0500383F311885E
:102C9000BFF36F8FBFF34F8FFEE74FF0500383F307
:102CA0001188BFF36F8FBFF34F8FFEE7022B0BD15D
:102CB000E26B012A08D04FF0500383F31188BFF371
:102CC0006F8FBFF34F8FFEE71E460F4600F04EFE9C
:102CD00050B9019B53B14FF0500383F31188BFF3F8
:102CE0006F8FBFF34F8FFEE700253AE0002538E0F5
:102CF000324639462046FFF79FFE636A4BB9A8B1BA
:102D00003B4B4FF080521A60BFF34F8FBFF36F8F72
:102D10000CE004F1240000F093FD38B1344B4FF087
:102D200080521A60BFF34F8FBFF36F8F01F02CF901
:102D3000012005B0F0BD01F027F90020F9E702A855
:102D400000F0C2FD012519E0002384F8443021E0A1
:102D5000002384F8453023E02046FFF7BAFE00F058
:102D60004FFC01F0EFF8A26BE36B9A42C0D3022E46
:102D7000BED0019B002BDED0002DE0D001F004F985
:102D800000F0A8FB01F0DEF894F844305BB2B3F138
:102D9000FF3FD9D094F845305BB2B3F1FF3FD7D0B5
:102DA00001F0F2F801A902A800F098FDC8B9204688
:102DB000FFF726FE0028CFD0019904F1100000F0A3
:102DC00007FD2046FFF785FE00F01AFC0028C8D159
:102DD000074B4FF080521A60BFF34F8FBFF36F8FD6
:102DE000BFE72046FFF775FE00F00AFC0020A0E7D1
:102DF00004ED00E02DE9F84360B1044699B9006C98
:102E000088B14FF0500383F31188BFF36F8FBFF386
:102E10004F8FFEE74FF0500383F31188BFF36F8F9E
:102E2000BFF34F8FFEE7022B0BD1E06B012808D0D8
:102E30004FF0500383F31188BFF36F8FBFF34F8FB1
:102E4000FEE71F469046894601F0A2F9EFF311868E
:102E50004FF0500383F31188BFF36F8FBFF34F8F91
:102E6000A26BE36B9A4203D3022F01D000200FE044
:102E700094F845506DB23A4649462046FFF7DCFDCE
:102E8000B5F1FF3F08D06B1C5BB284F845300120E0
:102E900086F31188BDE8F883636A5BB104F124000E
:102EA00000F0CEFC40B1B8F1000F07D00120C8F807
:102EB0000000EDE70120EBE70120E9E70120E7E76B
:102EC000F0B585B0019260B1044699B9036C8BB13D
:102ED0004FF0500383F31188BFF36F8FBFF34F8F11
:102EE000FEE74FF0500383F31188BFF36F8FBFF3FA
:102EF0004F8FFEE70F4600F039FD50B9019B53B1EB
:102F00004FF0500383F31188BFF36F8FBFF34F8FE0
:102F1000FEE700263EE000263CE039462046FFF76B
:102F2000C6FD013DA563236923B901F02DF80120F9
:102F300005B0F0BD04F1100000F082FC0028F4D0D0
:102F4000344B4FF080521A60BFF34F8FBFF36F8F37
:102F5000EBE701F019F80020EAE702A800F0B4FC62
:102F6000012621E0002384F8443029E0002384F87E
:102F700045302BE02046FFF7ACFD00F041FB09E0B7
:102F80002046FFF7A6FD00F03BFB2046FFF747FD7C
:102F900000283DD100F0D6FFA56B002DBDD1019BCF
:102FA000002BD6D0002ED8D000F0EEFF00F092FA21
:102FB00000F0C8FF94F844305BB2B3F1FF3FD1D0CA
:102FC00094F845305BB2B3F1FF3FCFD000F0DCFFA7
:102FD00001A902A800F082FC0028D1D12046FFF709
:102FE0001EFD0028C6D0019904F1240000F0F0FB7A
:102FF0002046FFF76EFD00F003FB0028CAD1054B09
:103000004FF080521A60BFF34F8FBFF36F8FC1E74D
:1030100000208DE704ED00E00023072B0CD8074AC1
:1030200052F833200AB10133F7E7044A42F833106B
:1030300002EBC30358607047704700BF8819002037
:1030400070B504460D46164600F07CFF94F84430F7
:103050005BB2B3F1FF3F0DD094F845305BB2B3F1F2
:10306000FF3F0BD000F090FFA36B5BB12046FFF752
:1030700030FD70BD002384F84430EDE7002384F870
:103080004530EFE73246294604F1240000F0BAFB50
:10309000ECE70000074B9B6A1B6833B1054B9A6A4B
:1030A000D268D2685268DA627047024B4FF0FF3242
:1030B000DA627047300700202DE9F04781460D465F
:1030C00017469A46089EDDF824800A9C9200A521A6
:1030D000206B01F024FF236B07F18042013A03EBE0
:1030E000820727F0070785B300230F2B07D8E95C79
:1030F000E21882F83410EA5C0AB10133F5E70023E4
:1031000084F84330372E00D93726E662E66400257E
:103110002565201DFFF737FC04F11800FFF733FC8D
:103120002461C6F13806A6616462656584F858506A
:1031300052464946384600F0D7FE2060B8F1000FED
:1031400001D0C8F80040BDE8F087002384F834308F
:10315000D8E7000070B5002407E004EB8402930078
:1031600010481844FFF704FC0134372CF5D90E4CF5
:1031700004F592663046FFF7FBFB04F2A4452846AF
:10318000FFF7F6FB04F11400FFF7F2FB04F597607C
:10319000FFF7EEFB2046FFF7EBFBA662C4F8CC542A
:1031A00070BD00BF600700203007002038B504461E
:1031B00000F0C8FE274BD3F8D0240132C3F8D02446
:1031C000D3F8D43473B1234BD3F8D8348BB9214B13
:1031D000D3F8D434DA6AE36A9A420AD81D4BC3F8AA
:1031E000D44406E01B4BC3F8D444D3F8D034012BAD
:1031F0002CD0184AD2F8DC340133C2F8DC346364D2
:10320000E36AD2F8E024934202D9124AC2F8E034C9
:10321000104D05F1300003EB83039A00211D10448B
:10322000FFF7B4FB00F0B0FED5F8D8346BB1D5F899
:10323000D434DA6AE36A9A4207D2074B4FF08052DD
:103240001A60BFF34F8FBFF36F8F38BDFFF782FF58
:10325000CFE700BF3007002004ED00E010B50446C2
:1032600090F8593033B9006B01F09AF8204601F01C
:1032700097F810BD012B0AD0022BFAD04FF0500363
:1032800083F31188BFF36F8FBFF34F8FFEE701F019
:1032900087F8EEE738B517E000F054FE0D4CD4F88F
:1032A000C434DD68281DFFF797FBD4F8D034013B08
:1032B000C4F8D034D4F8E434013BC4F8E43400F06A
:1032C00063FE2846FFF7CAFF024BD3F8E434002B15
:1032D000E2D138BD3007002008B5FFF7DBFF064B11
:1032E0001B6B012BF9D9054B4FF080521A60BFF3CD
:1032F0004F8FBFF36F8FF0E73007002004ED00E041
:1033000070B504460E46184BD3F8E854D3F8D404ED
:103310000430FFF761FBB4F1FF3F12D02C44124B95
:10332000D3F8D4345C60A54214D80F4DA86AD5F800
:10333000D4140431FFF736FBEB6AA34212D9EC62D6
:1033400010E0002EEAD00848D0F8D4140431FFF77A
:103350001DFB07E0044BD3F8CC04D3F8D41404319C
:10336000FFF720FB70BD00BF3007002070B586B0AE
:103370000B9D0C9C45B94FF0500383F31188BFF3AC
:103380006F8FBFF34F8FFEE744B94FF0500383F3C5
:103390001188BFF36F8FBFF34F8FFEE75C26049653
:1033A000049E5C2E08D04FF0500383F31188BFF3C6
:1033B0006F8FBFF34F8FFEE7049E2563022584F8CD
:1033C000595000250395029405AD01950A9D00957D
:1033D000FFF772FE2046FFF7E9FE059806B070BDC4
:1033E0002DE9F04385B0074688461546994690007A
:1033F00000F050FF08B306465C2000F04BFF044687
:10340000B8B10663E4B1002384F859300393029401
:103410000D9B01930C9B00934B462A464146384630
:10342000FFF74AFE2046FFF7C1FE012005B0BDE8C8
:10343000F083304600F0B4FFE4E74FF0FF30F5E7EB
:103440004FF0FF30F2E7000010B588B0002405947B
:10345000069407AA06A905A8FFF76CFA059B029334
:10346000069B019300942346079A17491748FFF7D4
:103470007DFF40B100F032FB012806D0B0F1FF3FE4
:1034800018D008B010BD0020F6E74FF0500383F3CA
:103490001188BFF36F8FBFF34F8F0D4B4FF0FF328B
:1034A000DA620122C3F8D8240022C3F8E82400F02D
:1034B000EBFDE6E74FF0500383F31188BFF36F8F06
:1034C000BFF34F8FFEE700BFE04F0008D93200087E
:1034D00030070020034AD2F8EC340133C2F8EC3450
:1034E000704700BF30070020014BD3F8E804704755
:1034F000300700202DE9F041404BD3F8EC34002B8D
:103500006DD13E4BD3F8E8540135C3F8E854CDB93A
:103510009B6A1B6843B14FF0500383F31188BFF3DC
:103520006F8FBFF34F8FFEE7344B9A6AD3F8CC14FA
:103530009962C3F8CC24D3F8F0240132C3F8F02404
:10354000FFF7A8FD2D4BDB6AAB423ED900242B4A86
:10355000D2F8D434DB6A03EB830399000A44136B7B
:10356000012B43D9012441E00124244B9B6A1B68B1
:103570006BB3224B9B6ADB68DE6873689D422BD37A
:1035800006F104084046FFF727FAB36A1BB106F1BB
:103590001800FFF721FAF36A184AD2F8E0249342A0
:1035A00002D9164AC2F8E034144F07F1300003EB99
:1035B00083039A0041461044FFF7E8F9F26AD7F80E
:1035C000D434DB6A9A42CFD2CFE70024CDE70B4B4D
:1035D0004FF0FF32DA62BAE7084AD362B7E7074A28
:1035E000D2F8F4340133C2F8F4340024034BD3F896
:1035F000F83403B101242046BDE8F08130070020F3
:10360000394BD3F8EC3443B94FF0500383F31188AE
:10361000BFF36F8FBFF34F8FFEE770B500F092FCE2
:10362000314BD3F8EC24013AC3F8EC24D3F8EC3452
:10363000002B54D12C4BD3F8D03423B9002400F004
:10364000A3FC204670BD0024274B5B692BB3264D9D
:103650002B6ADC6804F11800FFF7BEF9261D30461E
:10366000FFF7BAF9E36AD5F8E024934201D9C5F827
:10367000E0341D4D05F1300003EB83039A00314621
:103680001044FFF783F9E26AD5F8D434DB6A9A4232
:10369000DAD30122C5F8F824D6E70CB1FFF7FAFC1B
:1036A000114BD3F8F44464B1FFF724FF18B10E4B6B
:1036B0000122C3F8F824013CF6D10B4B0022C3F8D9
:1036C000F424094BD3F8F8345BB1084B4FF0805227
:1036D0001A60BFF34F8FBFF36F8F0124AFE7002451
:1036E000ADE70024ABE700BF3007002004ED00E0A9
:1036F00010B5B0B104460F4BD3F8EC3443B14FF0E2
:10370000500383F31188BFF36F8FBFF34F8FFEE732
:10371000FFF7E0FE00212046FFF7F2FDFFF770FF04
:1037200038B9054B4FF080521A60BFF34F8FBFF38B
:103730006F8F10BD3007002004ED00E0234BD3F85D
:10374000EC3423B1214B0122C3F8F82470471F4BFE
:103750000022C3F8F824D3F8E03403EB830291008D
:103760001A4A0A44126B5AB90BB1013BF5E74FF004
:10377000500383F31188BFF36F8FBFF34F8FFEE7C2
:1037800010B4124A9900CC18A0001044446B64682D
:1037900044633032194488000830024494420DD00A
:1037A0000A4903EB830082000A44526BD268C1F8D5
:1037B000D424C1F8E0345DF8044B704761680348D5
:1037C000142202FB03025163EAE700BF3007002026
:1037D00040B94FF0500383F31188BFF36F8FBFF3ED
:1037E0004F8FFEE710B50C46054BD3F8D4141831B3
:1037F000FFF7D8F801212046FFF782FD10BD00BF7A
:103800003007002038B540B94FF0500383F31188DA
:10381000BFF36F8FBFF34F8FFEE70C461546074A85
:10382000D2F8D4141831FFF7B1F80DB14FF0FF34CE
:1038300029462046FFF764FD38BD00BF3007002051
:1038400038B5C368DC6844B94FF0500383F311887E
:10385000BFF36F8FBFF34F8FFEE704F118052846C3
:10386000FFF7BAF8154BD3F8EC3403BB251D2846F7
:10387000FFF7B2F8E36A114AD2F8E024934202D982
:103880000E4AC2F8E03403EB83039A0029460C4841
:103890001044FFF77BF8E26A084BD3F8D434DB6AB4
:1038A0009A4209D90120054BC3F8F80438BD2946CE
:1038B0000448FFF76BF8EEE70020F7E73007002039
:1038C0006007002044070020034BD3F8F024026077
:1038D000D3F8E8344360704730070020F8B550B1A2
:1038E000054689B94FF0500383F31188BFF36F8FFA
:1038F000BFF34F8FFEE74FF0500383F31188BFF300
:103900006F8FBFF34F8FFEE70C4600F01BFB124B8F
:10391000D3F8E81468680A1A2368B3F1FF3F17D098
:103920002F680D4ED6F8F064B74201D0884211D905
:10393000934203D800232360012405E09B1A2360EF
:103940002846FFF7C1FF002400F01EFB2046F8BD0B
:103950000024F9E70124F7E730070020024B012299
:10396000C3F8F824704700BF30070020064BD3F897
:10397000D8343BB1044BD3F8EC340BB10020704782
:1039800002207047012070473007002000283BD0FC
:1039900038B504461F4AD2F8D424824208D04FF0EA
:1039A000500383F31188BFF36F8FBFF34F8FFEE790
:1039B000026D42B94FF0500383F31188BFF36F8F4C
:1039C000BFF34F8FFEE7013A0265C06AE16C88429F
:1039D0001CD0EAB9251D2846FEF7FEFFE36CE36222
:1039E000C3F13802A2610B4AD2F8E024934202D913
:1039F000084AC2F8E0342946074A142000FB032095
:103A0000FEF7C4FF012038BD002070470020FAE710
:103A10000020F8E73007002060070020064B1A68F6
:103A200013682BB90123036023B9D3681868704762
:103A30000023F8E7002070472C0C002008B54160F7
:103A4000006191420CD8D21A83699A4201D30120B5
:103A500010E0011D094B5868FEF7A4FF002009E0A3
:103A60009A4201D2994206D2011D044B1868FEF712
:103A700099FF002008BD0120FCE700BF2C0C0020AE
:103A800070B582B000F05EFA124B9B681BB100F07B
:103A90007BFA02B070BD0F4C04F10C063046FEF705
:103AA00067FF04F120052846FEF762FF2660656087
:103AB0000023009304F1340304F1840210210A204E
:103AC000FFF791F8A0600028E1D00349FFF7A4FABE
:103AD000DDE700BF2C0C0020E84F000810B588B0CF
:103AE000FFF7CEFF134B9B68D3B1002405940694D7
:103AF00007AA06A905A8FEF72BFF059B0293069BC4
:103B00000193022300932346079A0B490B48FFF7C2
:103B10002DFC084BC3F8240110B1012008B010BDE2
:103B20004FF0500383F31188BFF36F8FBFF34F8FB4
:103B3000FEE700BF2C0C0020F04F0008553E0008A7
:103B4000C8B130B585B015460446174A906840B3F1
:103B50001A4600910195029405291DDCFFF706FF26
:103B6000022811D000231A4669460F488068FFF7E3
:103B700083F805B030BD4FF0500383F31188BFF3D5
:103B80006F8FBFF34F8FFEE70023089A6946064800
:103B90008068FFF771F8ECE700236946FFF72AF920
:103BA000E7E70020E5E700BF2C0C0020214B1B6855
:103BB0001A68002A39D070B582B0DB681E68DC68EC
:103BC000251D2846FEF708FF236A2046984794F8EB
:103BD000283013F0040F0AD1164B1B681A68002A0C
:103BE000EBD1144A51681160536002B070BDA369F3
:103BF00033449E4207D26360246129460D4B186806
:103C0000FEF7D0FEE8E7002100910B463246204641
:103C1000FFF796FF0028DFD14FF0500383F31188A0
:103C2000BFF36F8FBFF34F8FFEE7024A51681160F9
:103C3000536070472C0C002038B50546FFF754FC44
:103C40000446084BD3F82831834206D800232B6062
:103C5000044BC3F82841204638BDFFF7A7FF0123D6
:103C60002B60F5E72C0C002070B582B005460E469F
:103C7000174B1B68DB68DC68201DFEF7ADFE94F86F
:103C8000283013F0040F08D123F0010384F8283002
:103C9000236A2046984702B070BDA1692B46324680
:103CA00029442046FFF7CAFE0028F1D000210091E8
:103CB0000B462A462046FFF743FF0028E8D14FF085
:103CC000500383F31188BFF36F8FBFF34F8FFEE76D
:103CD0002C0C002070B582B006460C46FFF7FAFBAC
:103CE00001A8FFF7A9FF019B23BB05460CB9B04211
:103CF00017D224B1114B5B681B68CBB90124224653
:103D0000711B0E4B9868FFF79BF9FFF779FC98B988
:103D10000B4B4FF080521A60BFF34F8FBFF36F8F82
:103D20000AE0FFF76DFC29463046FFF79DFF03E0F0
:103D30000024E4E7FFF764FC02B070BD2C0C002007
:103D400004ED00E030B589B002E0049B002B0FDAEF
:103D5000002204A93E4B9868FFF7B2F8002874D0FF
:103D6000049B002BF1DA07990698059B9847ECE72E
:103D7000069C636913B1201DFEF72EFE03A8FFF712
:103D80005BFF049B092BE3D8DFE803F00505053151
:103D900038510505313894F8283043F0010384F890
:103DA00028300599A5690B46024629442046FFF7AD
:103DB00045FE0028CCD0236A2046984794F8283046
:103DC00013F0040FC4D0A269002100910B4605989E
:103DD00002442046FFF7B4FE0028B9D14FF050034B
:103DE00083F31188BFF36F8FBFF34F8FFEE794F813
:103DF000283023F0010384F82830A9E794F828300C
:103E000043F0010384F828300599A16131B10346DC
:103E1000024601442046FFF711FE99E74FF0500398
:103E200083F31188BFF36F8FBFF34F8FFEE794F8D2
:103E3000283013F0020F04D023F0010384F8283057
:103E400086E7204600F0ACFA82E709B030BD00BF3B
:103E50002C0C002000B583B001A8FFF7DFFD01990D
:103E6000FFF738FFFFF76EFFF6E7000082B0002390
:103E700001930D4B1B68B3F1FF3F08D04FF0500387
:103E800083F31188BFF36F8FBFF34F8FFEE74FF0BF
:103E9000500383F31188BFF36F8FBFF34F8F019BE4
:103EA000002BFCD002B070470800002008480068D2
:103EB000006880F308884FF0000080F3148862B631
:103EC00061B6BFF34F8FBFF36F8F00DF00BF0000FD
:103ED00008ED00E0DFF80C00016841F470010160BA
:103EE0007047000088ED00E04FF0807340F8043C1C
:103EF00021F0010140F8081C054B40F80C3C40F84B
:103F0000202C6FF0020340F8243C4438704700BF77
:103F10006D3E0008000000000000000000000000EE
:103F2000074B19680868B0E8F04F80F30988BFF3C1
:103F30006F8F4FF0000080F311887047AFF300805F
:103F4000040C00204FF0500383F31188BFF36F8FF0
:103F5000BFF34F8F0A4A136801331360012B00D05F
:103F60007047084B1B6813F0FF0FF9D04FF0500358
:103F700083F31188BFF36F8FBFF34F8FFEE700BF4E
:103F80000800002004ED00E0094B1B6843B94FF026
:103F9000500383F31188BFF36F8FBFF34F8FFEE79A
:103FA000013B034A13600BB983F31188704700BFCC
:103FB00008000020000000000000000000000000D9
:103FC000EFF30980BFF36F8F154B1A681EF0100FC7
:103FD00008BF20ED108A20E9F04F10602DE909009C
:103FE0004FF0500080F31188BFF34F8FBFF36F8FF6
:103FF000FFF7A4FB4FF0000080F3118809BC19689B
:104000000868B0E8F04F1EF0100F08BFB0EC108A3F
:1040100080F30988BFF36F8F704700BFAFF3008054
:10402000040C002008B54FF0500383F31188BFF350
:104030006F8FBFF34F8FFFF75DFA18B1034B4FF04F
:1040400080521A60002383F3118808BD04ED00E05C
:10405000084A0023136008490B60084B1B68084995
:10406000A1FB03139B09013B06490B600723136067
:10407000704700BF10E000E018E000E054000020AE
:10408000D34D621014E000E0394B1A68394B9A4264
:104090000DD0374B1A68384B9A4211D14FF050036C
:1040A00083F31188BFF36F8FBFF34F8FFEE74FF09D
:1040B000500383F31188BFF36F8FBFF34F8FFEE779
:1040C00010B582B02D4B1A78D2B20192FF221A702D
:1040D0001B78DBB28DF803309DF8033003F05003FA
:1040E000274A13700723536009E0254A5368013BB0
:1040F00053609DF803305B00DBB28DF803309DF810
:10410000033013F0800FF0D11D4B5B68032B08D0F8
:104110004FF0500383F31188BFF36F8FBFF34F8FBE
:10412000FEE71B0203F4E063154A5360019BDBB218
:10413000124A1370134B1A6842F470021A601A681C
:1041400042F070421A60FFF783FF00240E4B1C60A0
:10415000FFF7C0FE0D4A136843F040431360FFF7BA
:10416000A5FEFFF7EBFAFFF781FE204602B010BD77
:1041700000ED00E071C20F4170C20F4100E400E0A9
:10418000580D002020ED00E00800002034EF00E092
:10419000EFF305830F2B0FD9104A9B5CDBB2104A5B
:1041A00012789A4208D94FF0500383F31188BFF375
:1041B0006F8FBFF34F8FFEE70A4B1B6803F4E0637A
:1041C000074A5268934208D94FF0500383F311888D
:1041D000BFF36F8FBFF34F8FFEE77047F0E300E050
:1041E000580D00200CED00E0134A12F0070F20D00C
:1041F000D11D21F00701C1F5406313440A460E4961
:10420000C1F8002C0020C1F8040C1344083B23F033
:104210000703C1F8083C58601860981A5060136092
:10422000C1F80C0CC1F8100C4FF00043C1F8143C5D
:1042300070474FF44063E2E7600D002010B4134B69
:104240001A6882421CD359685C18844203D14068C2
:1042500001445960184641684418A24214D10C4CDC
:10426000D4F8084CA2420DD05268114441601A683B
:1042700012680260984200D018605DF8044B7047E5
:104280001346DDE70460F5E70260F3E760190020FC
:10429000600D002070B50446FFF71CF93F4BD3F8C2
:1042A000083CC3B13D4BD3F8143C1C426CD1ACB1BB
:1042B000083414F0070F11D024F00704083404F078
:1042C00007035BB14FF0500383F31188BFF36F8F87
:1042D000BFF34F8FFEE7FFF787FFE3E7002C55D0D2
:1042E0002E4BD3F8103CA34252D32C4BD3F8005C96
:1042F00003F5406301E02B4615466A68A24202D2EC
:104300002A68002AF7D1254AD2F8082CAA4241D0BF
:104310001E6808362A681A606B681B1B102B10D9A0
:10432000281910F0070F08D04FF0500383F31188BD
:10433000BFF36F8FBFF34F8FFEE743606C60FFF7F3
:104340007DFF6968154AD2F8103C5B1AC2F8103C30
:10435000D2F80C2C934202D2104AC2F80C3C0F4BFC
:10436000D3F8143C0B436B6000232B60FFF748F934
:1043700016F0070F10D04FF0500383F31188BFF3EE
:104380006F8FBFF34F8FFEE70026EFE70026EDE7C4
:104390000026EBE70026E9E7304670BD600D0020FF
:1043A00098B338B50446A0F1080550F8042C174915
:1043B000D1F8141C0A4208D14FF0500383F311883E
:1043C000BFF36F8FBFF34F8FFEE750F8080C40B17B
:1043D0004FF0500383F31188BFF36F8FBFF34F8FFC
:1043E000FEE722EA010244F8042CFFF773F854F8C0
:1043F000041C064AD2F8103C0B44C2F8103C284674
:10440000FFF71CFFFFF7FCF838BD7047600D002078
:1044100070B590B0054600240B940C940D940E9446
:104420000F9423E003F1784303F50433DA6C42F090
:104430000102DA64DB6C03F001030193019B67481E
:10444000EA00561BB3000B440C3300EB43039B887C
:104450000B9301230C930E93531B5A000A440BA990
:1044600050F82200FCF7A4FC0134E4B2062C42D838
:104470002146C5EBC50253002344584A52F8233065
:10448000B3F1904FCED0564A934213D0554A93423F
:104490001BD0554A934223D0544A9342CFD1544B18
:1044A000DA6C42F01002DA64DB6C03F0100305935F
:1044B000059BC4E74E4BDA6C42F00202DA64DB6C17
:1044C00003F002030293029BB9E7494BDA6C42F016
:1044D0000402DA64DB6C03F004030393039BAEE78E
:1044E000434BDA6C42F00802DA64DB6C03F0080339
:1044F0000493049BA3E7002426E003F1784303F52B
:104500000433DA6C42F00102DA64DB6C03F001037D
:104510000693069B3149EA00561BB3000344183347
:1045200001EB43039B880B9301230C930E93521BC7
:1045300002FA03F303440A3301EB83030BA958681F
:10454000FCF736FC0134E4B2012C44D82046C5EB1C
:10455000C5035A0022440A32204B03EB82025368FF
:10456000B3F1904FC9D01E4A934213D01D4A9342D3
:104570001BD01D4A934223D01C4A9342CAD11C4BE4
:10458000DA6C42F01002DA64DB6C03F010030A9379
:104590000A9BBFE7164BDA6C42F00202DA64DB6C6E
:1045A00003F002030793079BB4E7114BDA6C42F068
:1045B0000402DA64DB6C03F004030893089BA9E7A8
:1045C0000B4BDA6C42F00802DA64DB6C03F0080390
:1045D0000993099B9EE710B070BD00BF484F0008CB
:1045E0000004004800080048000C00480010004883
:1045F000001002400022032A16D870B400EB4004D9
:1046000063000A4C1C441444094BA3FB0153DB0810
:1046100003EB83067500491B617099B20132D2B277
:10462000032AEBD970BC7047704700BF781900208F
:10463000CDCCCCCC00EB40004300024A0121D15448
:10464000704700BF781900202DE9F04100250DB119
:10465000BDE8F0812E4605EB45025300504AD45C7C
:10466000012C05D0002C00F097800135EDB2EEE76B
:1046700005EB45035A004A4B134493F805802C463A
:1046800014E04848F1008A1B93002344183300EBE0
:104690004303891B4A0022440A3200EB82000122B4
:1046A00099884068FCF75BFC0134E4B2012CE8D93E
:1046B00006EB46035A003A4B134443445F782C46BA
:1046C00013E03848F200911B8B0023440C3300EBBD
:1046D0004303921B510001EB040C0022998850F80F
:1046E0002C00FCF73CFC0134E4B2062C1AD8C7EBD2
:1046F000C7022D4B13441B5DDBB2012BE1D02948CF
:10470000F200911B8B0023440C3300EB4303921BFC
:10471000510001EB040C0122998850F82C00FCF7A1
:104720001EFCE0E71F48F1008A1B93004344183346
:1047300000EB4303891B4A00904408F10A0800EB90
:10474000880800229988D8F80400FCF708FC730058
:1047500033445900124A0A4453790133DBB253718E
:10476000022B82D10E4B0B4400225A717DE70D487B
:10477000F1008A1B93002344183300EB4303891B89
:104780004A0022440A3200EB8200012299884068E4
:10479000FCF7E5FB0134E4B2012CE8D965E700BF82
:1047A00078190020484F00080C0000202DE9F04146
:1047B00088B0002403940494059406940794324B23
:1047C000DA6C42F02002DA64DA6C02F02002009225
:1047D000009ADA6C42F00102DA64DA6C02F001024B
:1047E0000192019ADA6C42F00202DA64DB6C03F0A7
:1047F00002030293029BDFF8988022460321404681
:10480000FCF7ADFB22464FF470614FF09040FCF78F
:10481000A6FB1E4E22464FF4BC713046FCF79FFBB0
:1048200003270397012504950594069403A94046A0
:10483000FCF7BEFA03950497059403A94FF0904046
:10484000FCF7B6FA842303930494059403A94FF06C
:104850009040FCF7ADFA4FF4706303930495059410
:10486000069403A94FF09040FCF7A2FA4FF4BC73F2
:10487000039304950594069403A93046FCF798FA2F
:1048800008B0BDE8F08100BF0010024000040048FD
:104890000014004870B58CB0002409940A940B945D
:1048A0002022214601A800F03AFB184D4FF0A0430A
:1048B0002B606C60AC60EC602C616C610426AE61B6
:1048C0002C776C7701232B6285F82440EC622C63F3
:1048D00085F83840EC6385F840402846FBF7C2FC79
:1048E000099409A92846FCF77FF9094B019306238F
:1048F000029303947F230493059606940DEB06011F
:104900002846FBF763FE0CB070BD00BF141A0020F0
:104910000200300430B58FB000240A940B940C943C
:104920000D940794089409940094019402940394BC
:10493000049405940694174D174B2B6001236B606C
:10494000AC6040F6FF73EB602C61AC612846FDF76C
:1049500025FC4FF480530A930AA92846FDF762FD0F
:104960002846FDF74AFC0794099407A92846FDF755
:10497000E1FE602300934FF4FA63019302940494E0
:10498000082269462846FDF7ADFC284600F0EEF9FE
:104990000FB030BDC81900200004004084B000B53D
:1049A00089B00DF1280C8CE80F001D996046FDF7C9
:1049B00065FEBDF878300D930AA8FDF71EFC602354
:1049C0000193BDF87C3002930023039305931D9A55
:1049D00001A90AA8FDF786FC1D990AA8FDF7B8FDF4
:1049E00009B05DF804EB04B07047000070B592B0F8
:1049F000514B19221A8000225A8029E000224FF4DC
:104A000080714E48FCF7ABFA4B4B1988013989B2DB
:104A1000198028225A800020FFF7ECFD22E00122B5
:104A20004FF480714548FCF79AFA434B19880131DD
:104A300089B2198028225A800020FFF7DBFD1BE095
:104A40003F494048FBF738FDF0B13220FEF750FEF9
:104A50003C48FCF74DF880214FF09040FCF778FA85
:104A60000028CBD03220FEF743FE04214FF09040C7
:104A7000FCF76EFA0028D2D02F4B5B88002BDFD0DA
:104A8000013B2D4A5380E0E72E48FBF79BFD42F2A5
:104A9000107404FB00F42C48A0FB043040F2963460
:104AA000A4EB9034294BA3FB0434E408A1B200200A
:104AB000FFF7A0FD204B1B88A3421DD901224021F6
:104AC0001E48FCF74CFA224E40F6FF7311931093E8
:104AD00008230F936C4606F110050FCD0FC40FCDC0
:104AE0000FC40FCD0FC495E8070084E8070096E8CF
:104AF0000F00FFF753FFA8E7002240210F48FCF703
:104B00002EFA134E4FF4FA63119340F6FF7310938D
:104B100008230F936C4606F110050FCD0FC40FCD7F
:104B20000FC40FCD0FC495E8070084E8070096E88E
:104B30000F00FFF733FF88E77E19002000040048CC
:104B400040420F00141A0020798A1E90CDCCCCCCA4
:104B5000C819002008B50520FEF7CAFDFFF774FD4F
:104B6000F9E710B5A4B03822002116A800F0D7F953
:104B70000024119412941394149415944422214601
:104B8000684600F0CCF92046FCF7EEF902231693B4
:104B90004FF48072199240221A921D931E930422A0
:104BA0001F925522209221932293239316A8FCF75B
:104BB0008DFA0F23119303231293139414941594D5
:104BC000082111A8FCF73AFD4FF4004300934FF081
:104BD00000530F936846FCF765FE24B010BD00003B
:104BE00000B583B0FBF71CFBFFF7BBFFFFF7DEFD53
:104BF000FFF750FEFFF78EFE0020FFF709FC0020B4
:104C0000FFF718FD00210846FFF7F4FC124B9A6DE0
:104C100042F002029A659B6D03F002030193019B2F
:104C20003C210E48FDF794FCFDF7D6FD0C4C2246C6
:104C300000210C48FDF714FE0B4B186004F1240210
:104C400000210A48FDF70CFE094B1860FDF7E4FD52
:104C50000848FBF74DFFFEE700100240C81900208E
:104C6000804F0008ED490008801A0020554B0008CD
:104C7000841A0020141A002008B50268034B9A42D7
:104C800000D008BDFBF7DCFAFBE700BF00100040D6
:104C900000B583B0104B1A6E42F001021A661A6E0C
:104CA00002F001020092009A9A6D42F080529A65D9
:104CB0009B6D03F080530193019B00220F216FF045
:104CC0000100FCF733F8054A936843F4804393608E
:104CD00003B05DF804FB00BF00100240007000400C
:104CE00000B589B0002303930493059306930793BB
:104CF0000368B3F1A04F02D009B05DF804FB03F1E3
:104D0000704303F50433DA6C42F40052DA64DA6C6F
:104D100002F400520192019ADA6C42F00102DA6464
:104D2000DB6C03F001030293029B01230393032333
:104D3000049303A94FF09040FCF73AF8DCE7000039
:104D40000268094B9A4200D0704782B003F50333E2
:104D50009A6D42F002029A659B6D03F00203019383
:104D6000019B02B0704700BF0004004000B587B04F
:104D700000230193029303930493059302680D4B60
:104D80009A4202D007B05DF804FB03F50333DA6CF6
:104D900042F00202DA64DB6C03F002030093009B32
:104DA0000123019302230293059301A90248FBF713
:104DB000FFFFE7E7000400400004004800B589B0A9
:104DC000002201463620FBF7B1FF3620FBF7E2FF59
:104DD000144B9A6D42F010029A659B6D03F010031C
:104DE0000193019B02A903A8FCF73EFDFCF72AFDF5
:104DF0000D4BA3FB00239B0C013B0C480C4A0260AB
:104E000040F2E732C2604360002303618360FDF734
:104E1000C5F918B1012009B05DF804FB0348FDF79E
:104E200029F8F8E70010024083DE1B43881A0020AF
:104E3000001000407047FEE7FEE7FEE7FEE7704720
:104E400008B50248FDF73FF808BD00BF881A0020EA
:104E5000054BD3F8882042F47002C3F888204FF045
:104E600000629A60704700BF00ED00E00D48854683
:104E70000D480E490E4A002302E0D458C4500433B2
:104E8000C4188C42F9D30B4A0B4C002301E0136089
:104E90000432A242FBD3FFF7DBFF00F011F8FFF76B
:104EA0009FFEFEE700800020000000205800002048
:104EB0001050000858000020D41A0020FEE700001F
:104EC00070B50D4E0D4CA41BA4100025A54209D1B0
:104ED0000B4E0C4C00F02CF8A41BA4100025A5428E
:104EE00005D170BD56F8253098470135EEE756F8E4
:104EF000253098470135F2E70850000808500008AF
:104F0000085000080C50000810B5431E0A44914296
:104F100000D110BD11F8014B03F8014FF7E702442F
:104F20000346934200D1704703F8011BF9E70000E4
:104F3000F8B500BFF8BC08BC9E467047F8B500BF86
:084F4000F8BC08BC9E46704756
:104F48000004004800000048001400480000004821
:104F5800001400480004004800040048100000083D
:104F680001000001020020000800000000000048C5
:104F78000000004800040002005000080000000083
:104F88000000000000000000000000000002000017
:104F9800180000000000000000000000F84F0008A2
:104FA80000000000000000000000000000000000F9
:104FB80000020000100000000000000000000000D7
:104FC80000000000000000000102030406070809B1
:104FD800000000000102030449444C4500000000A1
:104FE800546D725100000000546D722053766300B6
:104FF800626C696E6B303200626C696E6B303100C6
:045008000502000895
:04500C00E1010008B6
:105010000100000010000000AAAAAAAA01010101D3
:105020000101000001010000000001010001010078
:105030000101010101000001000101000001010165
:105040000001010001010100010101010101010153
:105050000000000001010101010101010101010045
:08506000010100000024F4002E
:0400000508004E6D34
:00000001FF
